:0200000400807A
:20E0000005000101932700005CE001006D67DEF13E33E811B1024D2DF40CDE0100E4800085
:20E0200000E480000000000000E0800000000000000000000000000000000000000000001C
:20E040000000000000000000000000000000000000000000000000000000000000000000C0
:20E06000211000C030A6A28D73646B232323232300000000000000000000000000000000B9
:20E08000000000000000000000000000000000000000000000000000000000000000000080
:20E0A000000000000000000000000000000000000000000000000000000000000000000060
:20E0C000000000000000000000000000000000000000000000000000000000000000000040
:20E0E000000000000000000000000000000000000000000000000000000000000000000020
:20E100000000000000000000000000000000000000000000000000000000000000000000FF
:20E120000000000000000000000000000000000000000000000000000000000000000000DF
:20E140000000000000000000000000000000000000000000000000000000000000000000BF
:20E160000000000000000000000000000000000000000000C9F10F25606E9CBA16F2002A5B
:20E18000665A49C1096182F664136F140E0343B65CDDBAB00000000000000000000000002C
:20E1A00000000000000000000000000000000000000000000000000000000000000000005F
:20E1C00000000000000000000000000000000000000000000000000001D1850E589E820062
:20E1E00000000000000000000000000000000000000000000000000000000000000000001F
:20E200000000000000000000000000000000000000000000000000000000000000000000FE
:20E220000000000000000000000000000000000000000000000000000000000000000000DE
:20E240000000000000000000000000000000000000000000000000000000000000000000BE
:20E2600000000000000000000000000000000000000000000000000000000000000000009E
:20E2800000000000000000000000000000000000000000000000000000000000000000007E
:20E2A00000000000000000000000000000000000000000000000000000000000000000005E
:20E2C00000000000000000000000000000000000000000000000000000000000000000003E
:20E2E000FFFFFFFFFFFFFFFFFFFFFFFFFFFFFFFF000000000000000000000000000000002E
:20E300000000000000000000000000000000000000000000000000000000000000000000FD
:20E320000000000000000000000000000000000000000000000000000000000000000000DD
:20E340000000000000000000000000000000000000000000000000000000000000000000BD
:20E3600000000000000000000000000000000000000000000000000000000000000000009D
:20E3800000000000000000000000000000000000000000000000000000000000000000007D
:20E3A00000000000000000000000000000000000000000000000000000000000000000005D
:20E3C00000000000000000000000000000000000000000000000000000000000000000003D
:20E3E00000000000000000000000000000000000FFFFFFFFFFFFFFFFFFFFFFFFFFFFFFFF2D
:20E40000004800477FE58000AFF3008000F006F81FB51BF01BFD1BF0D6FB1FBD00F0FAF9E7
:20E420001146FFF7F5FF03F003FB4CF4FBF4000010B57F4A7F4980484BF42FF57F4A804968
:20E4400080484BF42AF5804980484BF4E7F5804A804981484BF421F5804A814981484BF49D
:20E460001CF5BDE81040804980484BF4D7B57FB54FF40010F0E9E0121144806810220D1854
:20E48000294668464BF409F5102269460020F8F7A1DF7749D1F87C11764E60F31F414FF0E6
:20E4A000FF30F160F9F785D9F1684843F0601BF075FB002400F08CF945F82400641C042C35
:20E4C000F8DB00F085F9F0607FBD70B56A4D6B496B4C28684FF00002B1EB002F05D0204651
:20E4E000BDE870406749F9F7BA9A002145F20600FDF7BFDD10F0FF0303D0624901221C31F5
:20E5000004E028685F49030E012250312046BDE87040F9F7A49A38B572B6FFF7D6FFFFF76B
:20E5200087FFFFF7A4FF002004F0D6FD162000F012FA172000F00FFA53A11F204BF45AF4B3
:20E540004FF0055551A12846F9F78FDC044656A12846F9F78ADC03464A49494802227C3124
:20E56000801E0094F9F77BDA00F000FA51480068002803D001B0BDE83040004738BD10B577
:20E58000FEF7EED8002851D14FF4001090F8DC12C9074BD0AFF28101474A1160484A47497B
:20E5A00011604FF4F041C0F8841348F6F031C0F888134449C0F8CC13202180F87B1390F882
:20E5C0004D1321F0080180F84D13062180F84F1390F8782390F89A1342F0260280F8782323
:20E5E00021F0210180F89A1390F8341341F0010180F8341390F87A1321F0100180F87A13C6
:20E6000090F8C31321F0C00180F8C313F02180F820133C2180F82113C82180F82213FF2101
:20E6200080F82313BDE8104000F04EB810BD00002804000040BF8200007C2000F400000037
:20E6400068C3820028802000F40900001C812000000000005CC4820000C021000000000008
:20E660005CC4820000C021000000000000C02100008005401C8120002880200000746572A1
:20E68000020310210000800843000000467269204D61722032302031373A31323A353020B2
:20E6A0003230323000000000312E322E312E32343800000024812000380C200055E88000F4
:20E6C0003C0C20000000F782082000F04BB80000042800D904204FF40013042983F8FC0219
:20E6E00000D9042183F89411032A00D9032283F8952170474FF40011027881F89721427830
:20E7000081F89821827881F89921C27881F89A21027981F89B21407981F89C0170472A4884
:20E720002A49016070474FF40011D1F8142360F34102C1F8142370474FF40013B3F8DC22BE
:20E7400060F3082261F34B22A3F8DC2270470A2802D94FF4205000E080024FF40011C1F8FC
:20E76000E80270474FF4001181F8F10270474FF4001282F8100382F8251370474FF40011E2
:20E7800081F8110370474FF40011A1F8120370474FF40011A1F8260370474FF4001181F8E2
:20E7A0002F0370474FF40011B1F8DC2260F34102A1F8DC2270474FF4001383F8FD0283F846
:20E7C0000E1383F82E23704736022000C62004010B49D1F800C04A685CF8043B106818445C
:20E7E00042F8040B8C4528BFA1F1DC0C8A4228BFA1F1DC02C1F800C04A6020F00040704751
:20E80000088B20004FF000501049EFF30582104B9847FEE770474572726F722120506C65B2
:20E8200061736520696D706C656D656E7420796F7572204953522048616E646C6572206653
:20E840006F7220495251202564210A0016E88000B179000010B54FF4001494F89B0340F0D9
:20E86000800084F89B0394F8DC02C1074FF0045003D06CA1F9F79CD806E06DA1F9F798D8A1
:20E8800003F45FF017F49DF794F89A03C00702D00020F9F79FDCBDE81040FFF7B5BD40EABF
:20E8A00001210120F8F7FC9C10B54FF40014002294F84C1360F3010184F84C13114645F2A7
:20E8C0000200FDF7D6DB002805D194F84C1321F0030184F84C1310BD01464FF489635F4ACC
:20E8E000002017F43DB25D4A4143D21D40F24D43002017F461B210B50C4608B117F4BBF25C
:20E90000564A21460E32BDE8104040F25743002017F426B217F4AFB2514AD170514A12688F
:20E92000002A00D0104770474F4A1268002A00D0104770474D48006870474A4810B50E2279
:20E940004B4910304BF4A9F24648103010BD4848801E0078704700F01F02012191404009C4
:20E96000800000F1E020C0F8801170472DE9F0473A49BEB0402218312DA84BF415F33749A1
:20E98000B422583168464BF40FF33C494FF40010384E394F096805460024A94201D0F6F7BA
:20E9A00083D9DFF8DC804FF00559DFF8D8A02FE06CB3012C2BD056F82400404500D038B9CE
:20E9C000404524D155F82400A0F5807155391ED1102C09D22DA850F824104846F9F745DA44
:20E9E0000346012228490BE0684600EB840050F8401C4846F9F739DA2349012203462431D0
:20EA00005046F9F72CD856F8240045F82400641CB4EB970FCCD3BFF35F8FBFF34F8F3EB017
:20EA2000BDE8F087496E20536F43204D6F6465005741524E494E473A20496E2048434920FE
:20EA40004D6F64652C2077696C6C206E6F742072756E20415050205461736B00789E8200FB
:20EA6000288020001C81200020812000F4002000F52820004CBE8200F400000008ED00E0AA
:20EA800005E88000010110219C00800810B500210448F9F72CDEBDE8104004210248F9F732
:20EAA000269E0000257D20001D7E2000F0B54FF490777B06C0F38166C1F341754FF4A07E40
:20EAC00040EA0104012A06D0B9426FD071456DD010296BD04BE0A1F1C04CBCF1400C18D0BB
:20EAE000B1F1C24F20D0A1F1C04CBCF1100C03D0DFF8F0C2614524D1D3F80CC24CF0806C54
:20EB0000C3F80CC2D3F80CC24CF0006CC3F80CC227E0D3F80CC24CF0806CC3F80CC2D3F886
:20EB20000CC24CF0005CF1E7D3F80C4244F08064C3F80C42D3F80C4244F08054C3F80C4233
:20EB400015E0DFF8A4C261450BD1D3F860C34CF4007CC3F860C3D3F848C34CF0100CC3F890
:20EB600048C3B9421DD071451BD0102919D020F0406321F0C0404FEA860101F18041012A7D
:20EB8000D1F8102218D09A43C1F81022A90001F18041D1F82C22824322EA4000C1F82C025F
:20EBA000F0BDD3F82002204303E0FFE7D3F82002A043C3F82002F0BD1A43C1F81022A90044
:20EBC00001F18041D1F82C22024342EA4000E5E7864B4FF08042984216D1D2F8340220F447
:20EBE0008030C2F83402D2F85C0320F4C010C2F85C03D2F85C0340EAC140C2F85C03D2F818
:20EC0000340240F4803018E0794B984217D1D2F8340220F48020C2F83402D2F85C0320F47B
:20EC2000C000C2F85C03D2F85C0340EA4150C2F85C03D2F8340240F48020C2F83402704783
:20EC40006C4B9A04984216D1D2F8380220F00100C2F83802D2F85C0320F4C030C2F85C034F
:20EC6000D2F85C0340EAC130C2F85C03D2F8380240F0010018E0604B984217D1D2F8380299
:20EC800020F00400C2F83802D2F85C0320F4C020C2F85C03D2F85C0340EA4140C2F85C0349
:20ECA000D2F8380240F00400C2F838027047534B5A04984218D1D2F8340220F00100C2F8E7
:20ECC0003402D2F85C0320F4C060C2F85C03D2F85C0340EA4120C2F85C03D2F8340240F08B
:20ECE0000100C2F834027047454B9842FBD1D2F8300220F48050C2F83002D2F85C0320F42D
:20ED0000C050C2F85C03D2F85C0340EAC120C2F85C03D2F8300240F48050C2F830027047DA
:20ED200030B54FF4A0742306C0F341724FF49075012906D0A8421ED0A0421CD010281AD0F8
:20ED400005E0A84213D0A04211D010280FD001294FEA820101F1804120F0C040D1F82C2267
:20ED60000FD0824322EA4000C1F82C0230BDD3F82012014302E0D3F820128143C3F82012FE
:20ED800030BD024342EA4000EEE7C0F381624FF08043012906D002281CD004281AD0012813
:20EDA00018D005E0022811D004280FD001280DD001294FEA820101F1804120F04060D1F858
:20EDC00010220DD08243C1F810227047D3F82012014302E0D3F820128143C3F82012704735
:20EDE0000243F0E700000160004000200030014000340140005001400054014000200140C9
:20EE00000010014010B5C26822F08002C260002242604269826842F006028260C26842F02B
:20EE20008002C260026A22F0F0020262026A8B8842EA03120262C269754B1A40C261C269A3
:20EE40000B8842EA0342C2618A7802604A88120A4260C26822F08002C2600A894B891A43F3
:20EE6000CB881A43C260CA89012303EB02220B8A1A438260026922F02202026102698B89E0
:20EE80001A4302614A8A02640A8A082A1AD1CA8A52B1826A22F0F8028262826A0B7D0224FA
:20EEA00044EAC3031A4382620A8B002A0AD0826A22F47C528262826A497D042343EA0121A8
:20EEC0000A43826210BD5349884203D10022524952480DE05249884203D10022514980142D
:20EEE00006E05149884205D14C4800224F49401CFFF7DCBD7047142141800C21818040F2AC
:20EF0000522101800021018141810122C280018281811023C38142820F2303754275C182CF
:20EF20000183704702E0436A01F8013B521E92B2F9D2704702E011F8013B4362521E92B21C
:20EF4000F9D270470B060DD5012A13D0036C23F000430364436C43F001034364836C23F073
:20EF6000010383640B0704D0012A426813D08A4342607047036A43F008030362036A23F052
:20EF800008030362836C43F001038364036C43F000430364E6E70A43EAE702460020B1F5AF
:20EFA000807F04D052690A4200D001207047516CC907FAD170470129016903D021F0100137
:20EFC0000161704741F01001FAE710B5C46844F08004C460046A24F0F0040462046A44EAB0
:20EFE00002120262C2690A4C2240C261C26942EA0342C261CAB20260090A4160C16821F008
:20F000008001C16010BD11431943C16070470000FFFF00F800200140010000400100000858
:20F020000010014000100020004002400004002000224FF004515D48FFF738BD03795C4942
:20F04000012B02684B6830D093434B604279012A2AD100224A6382798AB3012A3DD08A6ECE
:20F0600003681A438A66C27952B3CB6B026893431343CB63027A7AB38B6C02689343134368
:20F080008B644FF080414FF4E052C1F84423D1F84423C06844F620635843FF2303EB5030AC
:20F0A000C0B20243C1F84423704713434B60427A002A8A68006804D002438A60704702E0E5
:20F0C00011E08243F9E78A6B03689A438A630A6E03681A430A66C6E70AE08B6B02689343F3
:20F0E00013438B63BFE7CA6B03689A43CA63C1E78A6C006882438A64E0E74FF0FF3101602C
:20F100000021017141718171C171017241721421C160D3E7264A0029116B01D0014300E046
:20F1200081431163CAE72249C864C7E7204A0029516B01D0014300E081435163BEE701211E
:20F140001E280ED9A0F12002032A01D8001F08E0242805D0252803D0262801D0FF20ADE7AF
:20F160000B3801FA00F0A9E71E28A7D9A0F12001032901D8001F08E0242805D0252803D00C
:20F18000262801D0FF2099E70B38C0B296E74FF080410028D1F8440302D040F4805001E090
:20F1A00020F48050C1F8440388E700000001000C00100040002263494FF48030FFF776BCB6
:20F1C000614A14230244B2FBF3F2F0B51B07D3F8604344F40074C3F86043D3F8604364055F
:20F1E00005D5D3F8604324F48064C3F860430725022A04D2D3F8606302EB420407E0941EE5
:20F20000062C0FD2D3F8606302EB4204E41DA540AE43C3F860638D88A540D3F860432543F5
:20F22000C3F86053032A03D0052A01D0072A10D191F824500124A71E012DD3F85C53A2F12C
:20F24000010607EB560604FA06F418D0A543C3F85C534C89002C0C8913D00C2545EA440406
:20F2600084603A4C0D6944F822504C6904608C8D012C0CD0022A27D0032A2CD031E0254300
:20F28000E5E7042545EA44048460CC68EEE74FF48054022A02D0032A0BD022E00D8E8A6A67
:20F2A000C98D42EA452244EA81210A43C3F8642317E00D8E8A6AC98D42EA452244EA8121C7
:20F2C0000A43C3F868230CE0D3F8641321F48051C3F8641305E0D3F8681321F48051C3F889
:20F2E0006813C068F0BD0122028140F6FF71C1600021818080F824100286C18541818185ED
:20F3000070470029816802D041F0010101E021F0010181607047016070470029816802D097
:20F3200021F0040101E041F004018160704710B5054B14240344B3FBF4F30260034840F8FA
:20F34000231010BD0040002000E0FFBFB02000407FB5044600200090019002900390102289
:20F360002146684607F0F8F86A46FE491046F9F724DD054610226946204607F0EDF804B031
:20F38000284670BD7CB508F09CFB00283ED107F039FF04003AD002202070012161700622D1
:20F3A000A2701022E270FF2222715D22A4F80520E171A0600020E060651D42F29270FDF765
:20F3C00011DA006E0107C0F3071201EB0251C0F30E3201EB421101EBD060E349C5F80B007F
:20F3E000097AC9070AD0D5F80710CDE90010D5F803300322DD49DE48F8F731DB02B02146B1
:20F40000BDE870401422032009F00FBE7CBD1FB502208DF80C006E20ADF80400CB20009006
:20F42000D548D44B002201A9006816F4DBF5002808D0CE200090D148CE4B002203A900689C
:20F4400016F4D0F51FBD38B5CD4C606950B9CD4800900023012241F28831CBA007F021F8D7
:20F46000606128B1BDE83840C548143017F4D6B3BD480078C00707D0BDE83840BB49002292
:20F480005831BB48F8F7EB9A38BD10B5BC4C6069002805D004F1140017F4F5F30020606107
:20F4A00010BD2DE9FF5F00240A46029410218DF80810B34F0A2103948DF8091007F12008B1
:20F4C000B7F806C00126D8F8043025464FF00709BCF5006F0DD9BD8002208DF80A00180ABC
:20F4E0008DF80C00180C8DF80D008DF80B30180E14E0B988DFF894A2614504D0D8F81CC077
:20F500000B44634577D1B86938F42FF168B1BD8005208DF80A00D8F8040062E0CDE90096D3
:20F520008DF80E0002AB0422A3E04FF4001090F8140380060AD5B888001B102806DBB869F6
:20F540002044FFF705FF1034A4B2F4E787494446012298315046D8F80430F8F780DA03F0BC
:20F56000F9FDA0896168BA88BB6903F03EFF4FF4805A20B300244FF0080BB8F80C00396949
:20F5800003F019FE17F464F1F861B8F80C004FF48052396938F419F18246F86917F465F175
:20F5A000BAF1000F28D0641C032CE6D303F0EAFDBD803869C8F804008DF80AB011E003F092
:20F5C000E1FDBA88D8F804001044C8F804003969421A524502D301F580513961BD808DF892
:20F5E0000A60010A8DF80C10010C8DF80B008DF80D10000E92E742E0D8F804003969401A3D
:20F60000B0F5805F1ED900243969B8F80C0001F5805103F0D0FD17F41BF1F8613969B8F8A4
:20F620000C004FF4805201F5805138F4CEF08246F86917F41AF1BAF1000F03D0641C032C7D
:20F64000E2D3B3E703F09EFDBD803869C8F80400020A8DF80C208DF80A90020C8DF80B00B1
:20F660008DF80D20000ECDE900968DF80E0002AB0422B978002040F495F0BDE8FF9F0B467A
:20F680003A4900900222B0315046F8F7E8D9BD8006203EE72DE9F04F8DB0074600200590F0
:20F6A000069007900B780E464C1C30498DF820300222E03135480097F8F7D1D99DF82030C9
:20F6C0002F4D4FF0100B4FF0030A4FF001090C2B0ED26BB12D4805F12008C01E0C2B7DD295
:20F6E000DFE803F07C0CBFE6F4F3F2F17CF0EFEE8DF814B08DF81530FF20A3E1112F6ED1DB
:20F700001F4901224A31032008F07DFA98F82A00464610B1002007F09CFF4FF4001090F8BD
:20F720001403800602D52046FFF712FE23788DF8213062788DF82220A078E17800EB01205A
:20F7400080B2ADF823002179677901EB072189B2ADF82510A77994F807C007EB0C27BFB203
:20F7600016E000009C032000BC802000140180080030102148A08200A8832000A48320007E
:20F78000448220000FF480006466750003311021ADF8277094F808C094F809800CEB082C8C
:20F7A00094F80A80E47A4FEA084808EB04646444CDF82940CDE90020CDE9021704940622B6
:20F7C000FA49FB48F8F74BD99DF821003072BDF823007081BDF82500B08101E004E238E085
:20F7E000BDF827003083DDF829004C4600F58060F06186F82890EA6822B18DF801406946F4
:20F80000A878904703F0A6FCB0890DF121030C22002103F0EAFDF8B1EA6822B18DF801A0E4
:20F820006946A878904703F0ADFCB08937F462F737F46FF78DF814B08DF815408DF816403A
:20F84000CDE900A405AB0422A97800203FF4AAF76C700DB0BDE8F08F03F094FC0C20706027
:20F86000E8E7072F03D0D1490022C03124E02078617800EB012083B2A8F80C30A078E2787F
:20F8800000EB022022796479120402EB04628018C8F8040001D00C2802D10021A980296172
:20F8A000C249009002227C31C148F8F7D8D8D0E7032F0CD0BF490022BD48F8F7D0D8C8E7FA
:20F8C00054E139E10DE1B0E062E052E02DE021786078444601EB002083B2B649A8F80C30C3
:20F8E00001226839B248F8F7BAD8A08903F013FE04460346AF49AE4801224039401EF8F732
:20F90000AED814B18DF8169009E005208DF81600EA6822B18DF801A06946A87890478DF852
:20F9200014B050468DF815A0C8E0A249002224319F48F8F794D8142016F41AF700203EF446
:20F9400071F1EA682AB102208DF801006946A8789047142016F40CF797A14FF00450F8F7CF
:20F9600027D803F0F7FB4FF47A7103200AF066F86FE7904900224431F8F771D894A14FF088
:20F980000450F8F715D8D4210320FEF788FF60E7032F03D08749002280318DE720786178CF
:20F9A000444600EB012080B2A0F51C51A8F80C00933938D0FCF716DF006E0107C0F30712D3
:20F9C00001EB0251C0F30E3201EB421101EBD0600023C4E90003AB808DF814B006218DF8A7
:20F9E0001510010A8DF81810010C8DF816908DF819108DF81700000E8DF81A008DF81C302A
:20FA00006C498DF81D304C468DF81B308DF81E30012260317148F8F722D80920CDE90004F1
:20FA200005AB0422BDE00020D2E707218DF814B08DF81510092F0CD03B4601226849F8F707
:20FA40000ED802208DF81600CDE900A905AB0422A7E098F82010C34629B1614900229C3903
:20FA6000F7F7FDDF27E07078B178C82200EB012087B2F078317900EB012084B27079B1790E
:20FA800000EB01201FFA80F8F079317A434600EB012086B26FF0010000EB440100EB470026
:20FAA00080B2CDE9002089B202912246394600203EF4EBF038B150468DF816A0CDE90009E3
:20FAC00005AB04226DE08BF8209045493848CDE900483B4604225839401E0296F7F7BFDF0A
:20FAE000B7E600223F4940F275203DF4C8F73C494446B8F8223001223C312D48F7F7AFDF76
:20FB000085F800908DF814B009208DF815008DF8169000208DF8170008208DF81800608C34
:20FB20008DF81900000A8DF81A000720494605AB0422CDE9000134E0052FD1D120786178E0
:20FB4000022200EB012083B2EB80A078E17800EB012080B228812249009068311448F7F79F
:20FB60007EDF2989E888FFF79CFC72E68DF814B00B208DF8150002A942F2907037F495F47F
:20FB800020B102208DF81600FF2003E09DF808008DF8169004218DF81700CDE9001905ABCD
:20FBA0000A46A97800203FF4FDF552E634028008033110219003800864667520737563630C
:20FBC0006573732C207265626F6F742100000000646675207265626F6F7421000233102171
:20FBE000DC04800886822000012286498648F7F736DF2EE62DE9FE43DFF810820546A8F1FA
:20FC000020060F46D8F80400B188D8F81C208DE807007C49DFF8F09144462B4604223C3129
:20FC20004846F7F71CDFB088636841195A18E1698A4210D90090CDE9015172490422AC3129
:20FC40004846F7F70CDF03B00022BDE8F04370497048F7F7049F317841B1B1692A4608441D
:20FC600039464AF41AF1B088284441E04FF4001090F81403800609D5002404E03819FFF752
:20FC800067FB1034A4B2281B1028F7DAB088B1692A46084439464AF400F1B0884446284432
:20FCA00081B2B180D8F80420D8F81C00801A401A09D04FF40062914205D0A84200D92846B5
:20FCC0000844904215D903F045FAA0896168B288B36903F08AFB70B103F054FAA08937F470
:20FCE00009F537F416F5B1886068084460600020B080BDE8FE8303F045FAF4E710B5002457
:20FD0000DDE90201042A0BD0022A0CD040491346012220313F48F7F7A2DE40F20A4010BD75
:20FD2000FFF7B8FC01E0FFF765FF204610BDF8B51C460093364915460646134602225431E1
:20FD40003448F7F78CDE052D10D1E0070ED032482E4C203C0670A069002807D140F255336E
:20FD60002E4A4FF4006115F4FBF7A061F8BDF8B529490A78824221D1244CFF20203C0870FC
:20FD8000A069002610B116F476F0A6611F4D95F82A0020B185F82A60012007F05AFC95F806
:20FDA000280001280AD185F82860E268002A05D003208DF801006946A0789047F8BD3EB5DA
:20FDC000044616484A38D0E90B12CDE90012A0F18001836AA82202A83FF449F430B10B4943
:20FDE0009DF8080020398870CC603EBD084909489DF8083001228031801EF7F730DEFF20F2
:20FE00003EBD0000840580080331102164822000A8068008023310212C8020005EA0820083
:20FE2000062804D2F84A22F810100120704700207047F54931F810007047F34910B5083923
:20FE40000446C871F148007AC00704D00022F049F048F7F704DEEC4900221C39EF48CA6160
:20FE60000A624A620178EC4A20463EF478F308B1002010BD012010BD10B589B9E2494A891F
:20FE800022B1E64909783EF414F458B1DF480078C00705D0DE4900229031DE48F7F7DFDD87
:20FEA000002010BD012010BD1CB5C1B9D6490024CA880B8942F60211CDE90014D749521C50
:20FEC00092B209783EF422F458B1D0480078C00705D0CF490022D431CE48F7F7C0DD0020E0
:20FEE0001CBD01201CBD0EB5C74A53895BB1ADF80810022102AACDE90012C849012209786A
:20FF00003EF4CEF450B1C1480078C00704D00022C349C048F7F7A3DD00200EBD01200EBD55
:20FF20002DE9FC41B94E8046BA4F307A14460D46C00707D0BA4900942B7802224431384652
:20FF4000F7F78DDD307BC0070BD02A462146B548F7F7DBDFB2490346012280313846F7F7FC
:20FF60007EDDA94903201C390870A748C38843B1AA48CDE900450122017840463EF490F451
:20FF800058B13078C00705D0A549002290313846F7F765DD0020BDE8FC810120FBE71CB57F
:20FFA000994C02231C3C2370974B9B883BB1CDE900219A49022209783EF472F458B1934880
:20FFC0000078C00705D096490022D0319148F7F746DD00201CBD01201CBD2DE9FF5F8B4EE1
:20FFE000002482468DF80040307A8846A146C00705D00B4601228C498648F7F730DD824F72
:02000004008179
:20000000864DA7F11C0BB8F1020F16D0B8F1060F2FD0B8F10A0F36D03079C00705D0824919
:20002000002238317B48F7F71ADD9BF80200D84601282DD0022847D143E0388808B97888CE
:20004000A8B1307AC00705D07149002228317148F7F705DD7B883A88297850463EF4AFF274
:200060000028E2D001208DF804000124DDE70220F9E76878062804D2798827F810100620C7
:2000800068708BF8029060481A3800F010FDCCE7F8883F89401C1FFA80F9307AC00705D04D
:2000A0005B49002258315B48F7F7D9DC3B464A46297850463EF4E6F230B101208DF80400CE
:2000C00004E08DF8049001E0002C07D0D8F80C30002B03D06A46514628789847BDE8FF9F2C
:2000E0002DE9F041494E4B4F1446307A0D46C00706D00B464C49012278313846F7F7AFDCEB
:20010000022D0FD0404A042D13D0052D34D03079C0072CD03846BDE8F04143490022B431AA
:20012000F7F79D9C21880020FFF77AFE618801202FE03A4D6878062805D22188491E22F8B2
:20014000101006206870A01D1022384949F45AF678B13649A01D1022103149F453F60028FE
:2001600005D1A1880320FFF75BFE04206870BDE8F081A18802200CE06088A0F52451023998
:20018000F5D12188D0888842F1D210898842EED30520BDE8F04143E62DE9F04186B0804680
:2001A00002200C9F8DF808001848ADF80E101D46007A16460C46C00708D01B49CDE9006519
:2001C00023460322FC311348F7F749DC0E484089B0420DD100208DF80C004CB9022D07D14A
:2001E0003878797800EB012000F001008DF80D0005481C38C368002B04D0084802AA414681
:200200000078984706B0B2E7AC822000BC8020005007800800301021849F82002D802000DC
:2002200068088008000050217809800874A082001FB50321ADF80630FF4B8DF80010598922
:20024000914201D1012108E0D988914201D1002103E0998891420CD102218DF80410F64919
:200260001C39CB68002B04D00146F4486A46007898471FBD7FB5F04D0146089CED8840F68A
:200280000450954211D104208DF8000000208DF80400E948ADF808301C380394C3681BB10F
:2002A000E6486A4600789847002004B070BD10B5E34C0220606242F29370FCF793DA002079
:2002C000206142F29270FCF78DDA006E0107C0F3071201EB0251C0F30E3201EB421101EB6E
:2002E000D060606110BD2DE9F8438046D2480838C279424524D1FF21D04ECF4FC171062064
:200300001C3F70700024BC707C70FFF7D0FFCC4D95F82A0020B185F82A40012007F099F96F
:2003200095F8290001280BD185F829403B69002B06D003208DF801006A4641463078984710
:20034000BDE8F8837FB504460020009001900290039010222146684606F0FEF86A46B949B4
:200360001046F8F71EDD054610226946204606F0F3F8284699E710B5002303E030F8024B9C
:2003800062405B1CB3EB510FF8D3104610BD2DE9FE4FDFF8A482AC4FA8F11C08AB4E98F8B7
:2003A000000003283FD0002202A940F275203DF466F3BDF80800A24CC01E80B220F00F000B
:2003C000ADF80800E3696268991A814200D30146307A8DB2C00706D0CDE9002503229C495F
:2003E0003846F7F73CDBA089FCF7FCD906464FF42273984A2946002015F4B2F407001BD053
:200400006068A14681192A46384649F446F56068284460604FF4001090F81403800617D5D5
:200420003E46002411E03079C00705D08849002240393846F7F713DB0020BDE8FE8F304650
:20044000FFF780FF641CA4B21036B4EB151FF6D3DFF8E4A12A46AAF1080A39469AF80700DE
:20046000FFF79DFDB8F806004446002600B92681401CE080228929463846FFF77CFF2081C0
:20048000E188A288914205D0D9F80430D9F81C20934218D10A228DF80020BDF80820491E3C
:2004A00001FB02518DF80110090A8DF802108DF80400000A8DF803009AF807000522694623
:2004C000FFF72EFDE680384615F4D5F40120B4E72DE9F74F5D4F91F800804D78387A88B0C9
:2004E00016460C46C00708D05949CDE900564346032258315448F7F7B2DAB8F1100F38D1E3
:20050000DFF83491DFF838814FF0000AA9F11C09062D31D0012D7CD0092D7BD00A2D7AD0F7
:20052000032D26D1032E24D1387AC00705D0A378012249494448F7F792DAA07801286BD0EE
:2005400005208DF80000012269460898FFF7E8FC88F829A0D9F81030002B0AD0A078012805
:200560007CD003208DF8050001AA34480899007898470BB0BDE8F08F092EFAD1E078217990
:20058000A27900EB0120617942F2937B090401EB02614418B8F80C00454642F29271584545
:2005A0000CD12869A0420ED8A8F80C1006208DF8000092208DF801002720CFE08842D8D1FD
:2005C0006869A042D5D91E4901222A31032007F01AFB95F82A0010B1002007F03AF8A889B4
:2005E000FCF700D94FF001088DF80C800168CDF80D1041680646CDF811108068CDF81500EE
:200600004FF40010CDF819A090F81403800608D503E049E058E075E0A8E00DF10D00FFF7E5
:2006200091FE112203A90898FFF77AFC0C206860B06800F5806012E0AC8220002D80200052
:20064000648220009C03200000301021BC802000040B8008ACA08200A40C800888E0E861CA
:20066000397AC90714D0AA895A4501D1296900E069690094CDE9011002D14FF0010301E0D9
:200680004FF000034FF00402F949FA48F7F7E7D985F82980D9F810304046002B3FF469AF6E
:2006A0008DF801006A4660E7032E88D1387AC00705D0EF4900226C31EE48F7F7D0D90920F8
:2006C0008DF8000001224CE0072EEED1E0782179A27900EB0120617980B201EB022189B2E3
:2006E0004FF6F072C91E1140B0FBF1F1A9F80410A9F806A00024FFF74AFE641CE4B2082CE6
:20070000F9D336E7072EFCD1E0782179A27900EB01206179090401EB02614518387AC007C9
:200720000AD0D8F80400CDE90005D149A3780322A831D048F7F793D9C8F80450D8F81C109B
:20074000A94203D90BB0BDE8F04F20E603218DF80010B8F80C008DF80100000A8DF80200A1
:20076000032269460898FFF7DBFB02E70420E8E60220F7E62DE9F843BF4EBE4FBF4D307A3E
:2007800014468846C00707D02878009023780222BB493846F7F763D9207805281AD2DFE880
:2007A00000F0038724327900207920B1012812D002287DD10FE0307AC00705D0B0490022B3
:2007C00044313846F7F74BD901214046FFF78BFB012028706CE03079C00769D0A84900222F
:2007E00084313846F7F73BD962E0207900285FD1307AC0075CD0A24963790122C431384697
:20080000F7F72DD954E0E08878B13079C00708D0287800909A4923790222FC313846F7F76B
:200820001ED900203DF4FEF142E0207920B39549012802D002283BD114E02878012837D11F
:2008400042F29370888106208DF8000093208DF8010027208DF80200032269464046FFF756
:200860005FFB25E02878022822D1C869496888421ED9FFF78CFD1BE02878032818D1002467
:200880002C70EA78A2B17D4940462831FFF720FEEC700DE0207958B9287858B1227AEA70BC
:2008A000142A00D914227548E168283049F4F5F2002045E522894046E168FFF709FEF7E7CA
:2008C0003EB504466D484078022814D102AA694620463DF48CF1694906221431684649F4E6
:2008E00091F2002807D165489DF8082014308179914200D1C4713EBD60491431C979814206
:2009000001D1FFF79ABA70472DE9F0435B4E054600F10A02477A7178002085B0002912D1BF
:20092000E97900290FD10CE0115C401C8B1EC0B21E2B06D243181F2B03D8145CFF2C05D06B
:20094000D8B2B842F0D305B0BDE8F0831029FAD1141834F8010F5D28F5D1A0780128F2D1C8
:20096000DFF81481DFF80C91464F98F80800C00712D0D7E90413D4F807000DF1040CD4F83D
:200980000B208CE80F00786A0090D4F8033006223D494846F7F763D8D4F80300796A884257
:2009A000D1D13869D4F80710884204D87869D4F80B108842C7D91020ADF80400ADF80800B3
:2009C000ADF80600ADF80A000020ADF80C001E20ADF810004FF47A74ADF81200ADF80E401E
:2009E00001A900203DF473F10094AA790023294601203DF4C1F158B198F80410C907A2D05C
:200A000021490346012254314846F7F728D89AE702207070286870611849A8883083143192
:200A2000A87988718FE7F8B50646184968463DF4A1F401000F4F10484FF0FF042AD0144D04
:200A40009DF800302B70007AC00705D00E490122B4313846F7F703D8AFF2E7210748C0E9D9
:200A60000316FFF724FC05481430C4712878F8BDB00B800800301021BC80200090822000FA
:200A8000F40C800864822000440E800894A082002D8020008DF800400078C00704D0002271
:200AA00008493846F6F7DBDF9DF80000DFE7017821B90549098909B1012100E002210170E2
:200AC00070470000D40E8008AC8220002DE9FF41A04CDDE90A300E4600250327246840F204
:200AE0000D41022A12D04FF0020C102A17D00C2A2CD000931346022297499848F6F7AFDFAF
:200B000040F20A4504B02846BDE8F081012B2DD160B38DF8047001218DF806101DE0052BFC
:200B200024D118B38DF804708DF806C001788DF808104178827801EB0221ADF80A10C178E1
:200B4000007901EB0020ADF80C0009E0012B0DD160B18DF804708DF806C000788DF8080012
:200B6000002CCFD001A93046A047CBE70D46C9E72DE9FC47794FDDE90A54764E4FF000099D
:200B800042F292704FF0040842F2937A0A2A61D006DC042A12D0062A2AD0082A04D13DE0EE
:200BA0000E2A5CD0122A7DD06B49134601223C313846F6F754DF40F20A4948E065494FF46F
:200BC000007010313BF437F2624A002069461032C0F10503D35C0B54401C0628F8DB009813
:200BE0003061BDF80400B0820620226028802EE0FBF7F8DD58498246034601226C31384664
:200C0000F6F72DDF5449DAF860300122803138467360F6F724DF4F48001D15E05046FBF796
:200C2000E1DD4D4982460346012298313846F6F716DF4949DAF860300122AC313846F3603E
:200C4000F6F70DDF43480C302060A5F800804846BDE8FC870020B0603E480830F4E742F2A4
:200C60009070FBF7BFDD3B4E417818360346B17005213170012171704078B0704905F07894
:200C800091F8141340F00100490961F3410020F0180040F00400F0704FF40060B0800122DA
:200CA0002D4900E009E0C0313846F6F7D8DE4FF47360B0600C20266098E7FBF793DD2649BB
:200CC000064603460122D8313846F6F7C8DE306E204E2149243601223060EC313846736849
:200CE000F6F7BDDE5046FBF77DDD8046034601221B493846F6F7B3DED8F860007060184997
:200D0000012214313846B368F6F7A9DE082026606CE73EB504461348D0E90612CDE900122C
:200D2000A0F5007143694FF4057202A83EF49FF420B1084804609DF808003EBD084907481B
:200D40009DF8083001222831801EF6F788DEFF203EBD0000CC822000240F800802331021B0
:200D600028108008D4A282007CB50024DDE906650846042A0DD03E480078C00605D51346E5
:200D800001223C493C48F6F76ADE40F20A4420467CBD3A490A68002AF9D002218DF8001033
:200DA00069469047BDF80200308001982860EEE77CB50024DDE906030D46022A0ED02C485B
:200DC0000078C00606D52B491346012248312A48F6F745DE40F20A4420467CBD27490A680E
:200DE000002AF9D003218DF80010ADF802006946284601939047EFE71CB501240B46CDE945
:200E000000241F49042209783EF4CCF41CBD184808B5007AC00607D500931649134602222C
:200E200090311548F6F71BDE08BD3EB504461548D0E90B12CDE90012A0F18001836AA822E8
:200E400002A83EF414F40E4928B19DF8080008700A490C603EBD06480078C00606D50B78C5
:200E600004490122DC310448F6F7F9DDFF203EBDBC80200078108008003010210483200058
:200E80002F80200074A3820070B5002551F8252010E0541E264622EA0403002402E0641CAB
:200EA000E4B25B08002BFAD104EB45135B1E00F8013B3240002AECD16D1CEDB2082DE5D3E1
:200EC00070BDF0B50346002001464FF055344FF033354FF00F364FF0FF1753F82120491C57
:200EE00002F0553C04EA5202624402F0333C05EA9202624402F00F3C06EA1212624402F014
:200F0000FF1C07EA1222624402EB12421044C9B2C0B20829E1D3F0BD2DE9F0478EB0804686
:200F20009A4616460F461846DDF85890FFF7C9FF001D054601466823F64A002014F410F79E
:200F400004001CD004202070677066805146201DFFF79AFF6846CDF8008007F0A5F9ADF8A0
:200F60000A5001946846CDF8309007F012FA0546204614F480F728460EB0BDE8F0871020A4
:200F8000FAE72DE9F0478246984615460E461846DDF82090FFF795FF001DDE4A0746014688
:200FA00085231132002014F4DBF6040013D005202070667065804146201DFFF765FF4B4647
:200FC0003A462146504600F07CF90546204614F452F72846D1E71020CFE738B5446A05463B
:200FE000002000902288A17804F12C032846FFF793FF0022686A114600EB8103DB6A03B1B1
:201000000122491CC9B20829F6D342B1E07801248440286A0AF0CEFCB0FBF4F038BD0020A5
:2010200038BD406A2C304CE7406A416002727047406A01807047F8B50546446A480901F042
:201040001F0204EB80010126CB6806FA02F00343CB60CA6A04F12C0302430020CA620090C9
:201060002288A1782846FFF757FF2D6A686900280ED0E078864028460AF09CFC002807D068
:20108000B0FBF6F105F11400BDE8F84015F4D7B5F8BD426A480902EB800001F01F01C26AE6
:2010A0008A43C2627047416A0020024601EB8003401CC0B2DA620828F8D37047426A48094D
:2010C00002EB800001F01F01C06A01228A401040012800D000207047F8B504464068218912
:2010E00048F231030844E1680127CA1A994253D013DC48F20603A1EB0302994218D007DC7A
:20110000A1F10401B1F500410ED0012972D10FE0292A50D02A2A6DD14DE0062A6AD2DFE8B2
:2011200002F0A06A6A1F2727608902280DD099E06189032913D181782068007E0BF03EF948
:20114000E068A0F50041053909D120680025007E0BF019F901462A46204600F0E9F881E0D2
:20116000608902287ED120680022406AC1780FE06189032976D1216880784A6A0F2871D87F
:2011800000F00F01D170E068A0F50042353A69D1204600F0B0F865E06189042962D1216830
:2011A00040884B6A1A8890425CD100200090997820460C3352E06189042953D121684088ED
:2011C0004B6A198888424DD100201946024601EB8005401CC0B2EA600828F8D3E068A0F5A9
:2011E00000412F393ED10020009033F8022B13F80A1B32E035E06189052933D12168B0F88B
:2012000003204D6A29888A422CD100262A7A14E06B6890F802C013F8363063450BD185F82D
:2012200002C004226B6802EBC6029B583BB182782068984703E0761CF6B2B242E8D8287A8B
:20124000B0420FD9E068A0F5004132390AD1002000902A88A97805F10C032046FFF791FEDD
:2012600000E000273846F8BD70B50C0005461ED029482060606870B9264A4FF4E673233287
:201280004C21002014F46CF5606238B14C2148F4C5F622486060E06858B10CE02048007802
:2012A000C00704D000221F491F48F6F7D8DB002070BD1E48E060E8B22146BDE870400AF0BF
:2012C00033BDF0B58FB00446006800901D4616460F46684606F0E8FF0197ADF80A60208A08
:2012E000ADF81200208DADF8280068460C9507F050F80FB0F0BD08B513468DF80210802175
:201300008DF8001037218DF8011003226946FFF7D8FF08BDB8A38200FFFF0200D91081009D
:20132000BC8020009411800800301021DB0F810008B513468DF8021080218DF8001007214D
:201340008DF8011003226946FFF7BBFFE1E700000EB5ADF808308DF80710C0238DF80430D3
:201360005D238DF8053000238DF806300092062301AA00F053F90EBD2DE9F8431D461646D8
:201380000F4681464FF4BE783323B54A4146002014F4E6F404001AD0E770A580C2202070FE
:2013A0005D2060700020A0704FF4BB71A01D48F435F64346224639464846009600F02EF972
:2013C0000546204614F457F52846BDE8F8831020FBE73EB5069C8DF808308DF80710ADF8D5
:2013E0000940C1238DF804305D238DF8053000238DF806300092072301AA00F00FF93EBD95
:201400002DE9F84F1646964A1D460F4682464FF4BE795023093249460020DDF8288014F457
:201420009FF404001CD0E7702571A4F80580C32020705D2060700020A07040F27511E01D76
:2014400048F4ECF54B46224639465046009600F0E5F80546204614F40EF52846BDE8F88FA8
:201460001020FBE72DE9FE43044640682189804E45187C49E0684FF0010842187A497B4807
:201480004FF0000989680FD0B2F5803F67D04FF4BE73B2F5003F33D0B2F5403F7ED04FF087
:2014A00000084046BDE8FE836289062AF9D1237FEA7803F07F039A42F3D3D21A521CD7B295
:2014C000C90707D0618ACDE90017238A03226949F6F7C5DA366856B1A98894F82800EA78B1
:2014E0000092CDE90101618A208A01232BE0CDF80090228DE978208A3B46FFF76AFFD0E738
:2015000062899A42CDD1237FEA7803F07F039A42C7D3D21A521CD7B2C90708D0618ACDE94B
:2015200000175449238A03224031F6F798DA366866B1A98894F82800EA780092CDE901010F
:20154000618A208A02233A46B047AAE7CDF80090228DE978208A3B46FFF752FFA1E762897F
:20156000072A9ED1237FEA7803F07F039A4298D3D21A521CD7B2C9070AD02979228ACDE97A
:2015800000213C490297638A04228431F6F767DA7668002E85D0B5F8050000E006E0CDE987
:2015A00000702A79618A208A012323E062899A42A5D1237FEA7803F07F039A429FD3D21A6C
:2015C000521CD7B2C9070AD02979228ACDE9002128490297638A0422C831F6F740DA76684A
:2015E000002E8CD0B5F805000223CDE900702A79618A208AB04754E770B504461C4A5D20A8
:2016000008320D461060AFF2A3105060114600200AF08AFB1648C0E9004570BD2DE9F04113
:2016200006468EB01248DDF85080083000901D4614460F46684606F037FEADF80A509DF8DA
:201640001C00019467F306008DF81C00ADF81260ADF82880684606F09CFE0EB0BDE8F08162
:20166000EDA3820000A33FFFBC8020000030102108832000F01180082DE9F0478EB00746AE
:20168000DDF858A099460AF1070085B290460E4632234F4A2946002014F462F304002FD05E
:2016A0004C480068C4F80300C82020705D2060700020A070B9F1000004D001465246E01D20
:2016C00048F4EBF3434828380090684606F0ECFDADF80A509DF81C00019466F306008DF8BF
:2016E0001C00ADF81270ADF82880684606F051FE0546204614F4BFF328460EB0BDE8F087B4
:201700001020FAE738B5334C98B193B10025C4E900532081A172A28115F439F0206140F2DE
:2017200075100090A289A17A20890023FFF7A4FF38BD20686060002038BD10B5264AC16839
:201740000124D1420CD1418907290AD3214928390B6933B102461F4800212838984700E08B
:201760000024204610BD38B51A4C22682089521C012909D0022907D0042905D00323B3EB53
:20178000903F02D1062900D12260616800290AD022688A4208D240F275110091A289A17A9A
:2017A0000023FFF769FF38BD14F4F1F760610020606038BD0749094A28390A60AFF2850297
:2017C0004A60AFF25D028A60086100200AF0ACBAFFA382006083200000A337FF5D0003002C
:2017E00030B50322151F284691B000230146F6F728DD2846002302220146F6F722DD002296
:2018000011463F20F6F7FADC002211463D20F6F7F5DC012203213120F6F7F0DC00240FA98E
:2018200003200F9404F098FF00F05CFF2846F5F7C0DF04F0D2FE8BA1ADF840402822002094
:2018400006F051F9022210A9012006F04CF988A08B4C0FC88DE80F0004F10C000AAB07C830
:2018600083E807000B220AA9002008F082FD04228449022008F07DFD182204F1180104A804
:20188000256848F491F304A928460AF01EFE7E480621012200F87C1F4270C170042181712D
:2018A00007218173002009F041FF78490020FFF7DBFC5D217548FFF7BBFB002002F006FA0C
:2018C000D4E90101CDE90D010DA80AF0A6FA02F0B8FE1021684601F0DAFE684609F064F9E2
:2018E00008F022F86A4808F0D5F811B030BD00B589B0032001218DF81C0000208DF8141014
:20190000ADF818108DF800008DF8040002908DF80C00ADF8101005AA40F202203AF445F39B
:2019200006AA022140F203203AF43FF307AA01214FF401703AF439F36A46012140F2052015
:201940003AF433F302AA042140F211203AF44FF401AA012140F212203AF449F403AA012123
:2019600040F213203AF443F404AA02214FF405703AF43DF447483BF464F109B000BD10B567
:2019800005203DF4BFF50020FFF7C3F94248FEF716FA41483DF4CFF502203CF4D1F4BDE8A2
:2019A00010403E483CF4E3B4704710B510F0B9F920B1BDE81040012002F045BABDE810408F
:2019C00002F0FBB910B536A14FF00450F5F7F0DFBDE8104003F03AB810B51420FFF7CBDD06
:2019E000024632A14FF00450F5F7E2DFBDE8104003F035B803F047B810B5AFF20700F6F76B
:201A0000FEDD20B900222D492D48F6F728D8AFF237002C490860AFF253002B490860FDF79F
:201A200035F8BDE810400220F6F7199F00F0F5B8264810B5006818F0B1F801203BF4BEF0D6
:201A400004F083F8FFF753FFFFF799FFFFF7C8FEFFF7ABFFFFF7D0FF00F0DFF814F4B1F6AA
:201A6000002010BD4D6573682044657669636500000102030405060708090A0B0C0D0E0F04
:201A800008A48200C12281006086200078832000BF228100452081002D228100BF2181001A
:201AA000456E20444C5053200D0A00004578697420444C50532025640D0A00006C13800835
:201AC000003010214081200044812000288120007CB502228DF8042045226C4C0092014620
:201AE000694B0022A06814F47DF2694D50B14A200090654B002201A9606814F473F220B15E
:201B000001207CBD0022634902E0624900221C312846F5F7A4DF00207CBD1FB502218DF8EF
:201B20000C100321ADF80410ADF80600574C5820554B00901833002201A9A06814F452F24B
:201B4000002808D05B20504B00901833002203A9606814F447F21FBD1FB57D2000904A4B4B
:201B60004A4800242A3308222021083014F4C2F17E200090444B45482A3301225021001D9C
:201B800014F4B8F1414D2022D5E901013AF46DF1D5E901230221802007F0F8FE02F028FDCF
:201BA00002F03EFF002002F0E5FE8E264FF0FF3841F28837344B00962A33424603A968686F
:201BC00014F440F238B19DF80C00022812D0802820D03AF4B7F1641CBC42EBD310F0A1F8F2
:201BE00002462D482DA103684FF00450F5F7E0DE0024DFE79320244B00902A33002201A9ED
:201C0000A86814F41FF20028E5D0DDE9010100F0F9F9E0E707F0E5FDDDE71CB501214FF47A
:201C200020600023AFF2CF02CDE9000121A1174814F4CEF61CBDAFF21D121921182005F0DB
:201C400011BA1CB5044602461BA14FF00450F5F7AFDE24B1BDE81C40012002F01BBF4FF488
:201C6000C870ADF800003020ADF8040002226946042005F038FF022201A9052005F033FF51
:201C8000002002F007FF1CBD36A48200A083200000301021A4138008B48020006170705F20
:201CA0006D61696E5F7461736B202564202564200D0A000061707000746573745F646C7044
:201CC000735F66756E6374696F6E202564200A00F8B5FD4E15460C46034600920222F94913
:201CE0003046F5F7BCDE54B1012C0CD0012201B02346B01EBDE8F040F449F5F7B09EF14949
:201D00000022383104E04FF0000235B1EF4948393046BDE8F840F5F7A29EEA497431F7E73F
:201D200030B5E94C87B0054661B101292DD0022929D1034607B02046BDE830400122E449DE
:201D4000F5F78D9E024605A940F272203BF497F62A4604A940F273203BF491F62A4603A942
:201D60004FF41D703BF48BF6BDF81400BDF80C20BDF810108DE80700D4492B460422703193
:201D80002046F5F76CDE07B030BD0346D049CE48009202224C39801EF5F761DEF3E708B5F0
:201DA00003460091C94902223431C748F5F757DE08BD2DE9F04188B014460D46070043D172
:201DC000C44EDFF804833B463078CDE900050422C14902944046F5F742DE3570BDB3012D14
:201DE00032D0022D30D13A4606A940F272203BF446F63A4605A940F273203BF440F63A467B
:201E000004A94FF41D703BF43AF6721CB11C38463BF4EDF6B11CB148F5F7DEDF034670785B
:201E2000BDF81040BDF81420BDF818108DE81700A449052284394046F5F711DE40F6480299
:201E4000FB2138463BF49DF008B0BDE8F081FFE7A4F5807013380BD0B4F58B7F08D09E4957
:201E600099483B4602225031801E0094F5F7F7DD00203060706008B0BDE8F041FDF777BF31
:201E8000FEB5C4B2C4F30110C4F38102CDE90020029191498C4F04F001052B4604226C39C3
:201EA0003846F5F7DCDD8B4EB61E307800F00100A8420CD0E0070AD0874900221439384675
:201EC000F5F7CDDD69464FF400703AF4B4F03470FEBD30B50546438844687D497A4887B073
:201EE00001224031401CF5F7BADD0120ADF810006888ADF812006868059004A805F0AFFC41
:201F00006B880020704D0B2B74D2DFE803F073060B17121E30515C4425002046210CFFF721
:201F2000AFFF30E7220CC4F30721E0B2FFF741FF29E7210CE0B2FFF732FF24E7220CC4F321
:201F40000721E0B2FFF7ECFE1DE7220CC4F30721E0B2FFF7BDFE16E7E0B2012103F0A1FF4F
:201F60005B49002260312846F5F779DD0BE7E4B2019001A920463AF438F201985449009013
:201F80002346022280312846F5F769DD012120463AF470F2F7E6E4B2019001A920463AF409
:201FA00024F24B49019802222346BC31009006E04749C4F307200222E3B2FC31009028469C
:201FC000F5F74DDDDFE6009001900290E4B203902346012242492846F5F741DD6A461021DA
:201FE0004FF404703AF403F1012120463AF4E3F1C9E6FFE73A49344801222C31801EF5F7E0
:202000002EDDC0E603B581B0BDF8040040B103280AD00D2812D06E2801D1FDF7B3F90EBD8D
:2020200001A8FFF756FF0EBDBDF806008DF800002C4A0121684604F0BAFB0EBD01A802F04C
:2020400098F90EBD2DE9FF4100261F4D0C46152875D00CDC10281CD004DC01284BD003280D
:2020600011D180E0122869D014280CD11CE030284CD004DC182873D0202804D136E0402824
:2020800079D0A3286ED003460F4801221649801E6EE0086890F901204188CDE900121049DC
:2020A00003220378583108E0086882884188CDE900120B490378032290312846F5F7CFDC4A
:2020C0006EE00000641580080230102168168008B0178008AE832000481480080000302173
:2020E000E818800870A48200101C800808680122B74903783BE00868022241880091B449FA
:2021000003782C312846F5F7AADC49E0B1482168F5F762DE01462068477A90F908308279E4
:202120008DE88E00AA49C379052268312846F5F796DC206805F022FC32E000E033E00868D1
:2021400081880489C38842888DE81E00A04903780522C8312846F5F782DC40F603561FE077
:2021600027E008E012E008689B49012203882846F5F775DC14E0086897490122038834317A
:202180002846F5F76CDC05F0A7FD09E00B889249012260312846F5F762DC002005F0A1FDAE
:2021A000304604B051E608688B49012203889031DDE70868884901220388C031D7E72DE993
:2021C000FC41874E14460746034600910025022282493046F5F743DCFF2F24D1207810B15B
:2021E000012820D10DE020794FF00002022805D07A4960313046F5F732DC14E07749343122
:20220000F8E7207918B175490022E831F2E7A06842880188CDE900127049838803229431DA
:202220003046F5F71CDC2846BDE8FC817FB50025FF280AD06B4A127890423DD10878102289
:2022400002282CD0032837D12DE00C460978644E11B1012930D106E0A37801226249304661
:20226000F5F7FDDB28E020896388E28861798DE80F005D49237905222C313046F5F7EFDB44
:2022800020894FF0000230B157495548C031801EF5F7E5DB10E0544930469431F8E74A808A
:2022A0005248486008E04888102800D94A804A8849684E4847F4F1F504B0284670BD704709
:2022C00070B50E464849464D0446034698B00122EC312846F5F7C3DB0A2C48D2DFE804F043
:2022E000470507470B22474A5153032000E0002001F024FD3BE040223DA1684647F454F61F
:2023000020224BA110A847F44FF640226946032008F02FF8202210A9042008F02AF80022A9
:202320004B4910E03446304608F04CF949494870A078012804D0022809D0032817D10DE08A
:20234000434900223C312846F5F789DB0FE0E0783F490090022223797C3105E0E07800900B
:202360003B4923790222D8312846F5F778DB18B0012070BD01F043FD022001F064FD022086
:20238000B6E70120B4E70420B2E7022901D0032902D1002000F078BC704710B50C0001D08F
:2023A000032C02D1002000F06FFC44B1032C0DD108F007FABDE81040012005F04AB9002077
:2023C00005F047F9BDE8104008F044BA10BD7047CC198008000030211C1B80083C1C8008FC
:2023E000023010212F802000581D800830802000F465E43FF23D3F1B9DC7DFC04DA87581EB
:2024000084DBC966204796ECCF0D6CF5E16500CC0201D048BCBBD899EEEFC424164E33C2D5
:2024200001C2B010CA6B4D43A8A155CAD8ECB279529AA0670D72CD6497502ED473502B0380
:202440007E8803B5C60829A5A3CAA219505530BA5C1E8008AC83200010B5806820B1012873
:2024600005D0022808D105E00AF070F904E00AF0F9F801E00AF070F9002010BD0EB5012157
:20248000ADF80110816801B101218DF80310C16801B101218DF80410017C8DF80510828A78
:2024A000ADF80620027E8DF80820808BADF80900082901D8082A01D906200EBD0B22694688
:2024C000002007F056FF00200EBD10B5007A2F490DF0A8FC80F0010010BD3EB52C4A037A29
:2024E000818934CA8DE83400026989B202B10092426902B101928269264CA2F10A05F52D2E
:2025000001D884F899200279062A04D3C069FF2801D884F89A006A4618460DF083FB00283B
:2025200000D001203EBD38B5047A8189ADF80010006908B1012300E0002301226946204604
:202540000CF052FE002038BD10B5007A0DF048FC002010BD30B50179057A491ECAB285B0B7
:20256000142A00D9142200216C4605E000EB81031B7B6354491CC9B29142F7D32146284648
:20258000FEF73AFC05B0002030BD00009B238100B0A78200608620002DE9F0438FB014464E
:2025A0000D46804609F00FFA002647F6FF77A1462E23364A2946304613F4D2F3040021D0C9
:2025C0002A46494647F469F46846CDF8008005F06BFEADF80A509DF81C00019420F07F003F
:2025E000C01C8DF81C00ADF81270ADF82860684605F0CFFE0546204613F43DF428460FB084
:20260000BDE8F0831020FAE77FB50289416801248D188189036889B2B1F5144F03D00024AF
:2026200004B0204670BD428900210091019102910391C068D21E0090ADF804201869002803
:20264000EED0ED1C02951D696A461846A847E7E770B50C00054604D00D482060606810B11D
:202660000EE0002070BD0B486060206940B90A480079C00704D0002208490948F5F7EFD9AC
:2026800021462846BDE8704009F04EBBBCA782009400205309268100BC802000941F8008DB
:2026A0000030102110B50D4910680B68C0F307401BB19468117922469847002010BD10B56E
:2026C00006490446091D064808610020FFF7C0FF002C01D00148046010BD0000B8832000DD
:2026E000A526810008B507A00090002306A208A14FF00450F5F75CD9BDE80840002102A0C2
:2027000007F01DBA00000000302E302E302E30004D6573682053444B205665723A202573D3
:202720002C20474349443A20307825782C204275696C642054696D653A20257300000000BA
:2027400010B5D0210320FCF7AAF8002010BD2DE9FC4169464FF4007039F46DF4F64A00207B
:20276000918A01E0401C80B28142FBD80021938994680AE004EB0110007820B10020401C51
:20278000C0B20228FBD3491C89B28B42F2D8002102259488136810E001EB410013F8206011
:2027A0004EB105EB8000185A000408D40020401CC0B20228FBD3491C89B28C42ECD890466A
:2027C000966D27E0B56822E0012700240EE02146E86903F023FF38B1D8F8080000EB041009
:2027E000007808B107B10027641CA4B2B8F80C00A042ECD8284600E0086A4168496900294D
:20280000FAD1006A00E000680028FCD12D68002DDAD13668002ED5D10020BDE8FC8180683D
:2028200000B10120C54908700020704710B5816DC1481022353003F02DFF002010BD10B545
:20284000806800B1012006F096FC002010BD1FB50446BB480178A06D032909D00146102224
:20286000684603F017FFC1B2ADEB0100103003E047F4F4F2C1B2A06D0DF035FE80F0010030
:2028800004B010BD1FB5816D1022684603F002FF684608F02EFA08F00AFA08B10020EFE7A8
:2028A0000120EDE70020704770B5A44D059CA888401CA880A348D0F87C01282120F07C409C
:2028C000B0FBF1F613F463F70246D5E90310334603F01DFE002805DA20F000404FF47A71E0
:2028E000B0FBF1F0614201EB810104EB840200EB4101B0EB420F01D9002000E01E20084449
:20290000696901446961E96A884200D9E862A96A884200D2A86270BD1FB502208DF80C0029
:202920006520ADF8040040F22F1000908748864B002201A9006813F455F3002809D04FF401
:20294000997000908248804B002203A9006813F449F31FBD70B5794CA069401CA061A1887B
:20296000E0690844E0616169206A084420627548D0F87C01282120F07C40B0FBF1F0E0607C
:2029800013F405F720610020A08060616E4861780C38638950F821502289A178E088AC461C
:2029A000BDE870406047F8B5644D04460089E880207BA870208A2881A08A2A4681B26981C5
:2029C000208B526A0004000C4FF000061BD02379CBB1884200D2084642B300EB80004100AD
:2029E0005648243014F42BF1AE61AE80EE616E614FF0FF302E62C5E90A06FFF7ABFF0028E2
:202A000000D00120F8BD22B14C48243014F43BF16E6220790028E7D1A988E8690844E861C1
:202A20006969286A084428620020F8BD494900EB8000009141000023012247A003F031FD6A
:202A400068620028D0D03D48243014F4E7F0CBE73A4A00215170A6E7384A01215170A2E799
:202A6000364A022151709EE7F8B504460089267B87B2208A85B2606E47F4F0F180B2009086
:202A80002A4631463846636EFEF7F6FD002800D00120F8BD10B50189028A8CB2017B436909
:202AA00092B22046FEF72EFE002800D0012010BD30B587B00446816D062205A803F0EAFD62
:202AC000062105A803F034FDE06808B1012400E000241020ADF80400ADF80800ADF80600A3
:202AE000ADF80A000020ADF80C001E20ADF810004FF47A75ADF81200ADF80E5001A90020AD
:202B00003BF4E5F00023224605A9012000953BF433F1062105A803F00BFD07B0002030BDDC
:202B200010B5007A3BF47EF0002010BD10B5007AFDF783F9002010BD60862000E4832000A3
:202B4000AD83200000800540DCA78200A8832000A48320001929810070696E670000000058
:202B600070B50546002005F015FB834C804A814920780AF04AFC012120780AF056FC7F49B7
:202B8000287A087005F00FF9002070BD10B5027AC06808B1012100E000210AB1042010BDE0
:202BA000764C207805F054F97348217800780AF04AFC06F0DAFA002010BD0020401CC0B2C8
:202BC0000628FBD30020704710B5017A6A4800780AF0C6F9002010BD08B50089ADF8000027
:202BE000654801236A46194600780AF0C6F9002008BD08B50089ADF800005F4801236A4679
:202C0000002100780AF0B9F9002008BDF8B50446007A002100F001023F20F5F7EFDA207A57
:202C2000012100F001023F20F5F7E8DA207A022100F001023F20F5F7E1DA207A032100F00E
:202C400001023F20F5F7DADA0322207A151FC0F340036E0828463146F5F7F3DA207A0222B7
:202C6000C0F3400328463146F5F7EBDA207A042140070012020E684647F4C8F1694603202C
:202C800003F06AFD0020F8BD10B513F480F54FF47A71B0FBF1F13C22B1FBF2F0B1FBF2F18E
:202CA000B0FBF2F1B0FBF2F01820B1FBF0F2B1FBF0F0002010BD08B531A109680091806841
:202CC0001DF8001000203FF484F2002008BD08B5037A017B8DF800100069411EFE2902D213
:202CE000284981F89800284A694618460CF07AF880F0010008BD0EB50189ADF80010818923
:202D0000ADF80210008AADF804007F208DF80600BDF807000020ADF80700ADF80A009DE8E3
:202D200007000EF070F800200DF051FF00200EBD10B5048964F30F038489008A64F31F43C3
:202D400060F30F0100207F2464F3070260F31F4160F30F2218460EF063F801200DF037FFAB
:202D6000002010BD10B506F0EEFD002010BD0000298281008B7E8100EF802000A585200044
:202D80003080A0F0608620008B238100806800B10120C04981F845000020704701790129C2
:202DA00001D0052070470089BA49C0F30E00A1F85600002070477FB5018910228DB281891A
:202DC0008CB2016E684603F065FC6A462146284608F027F9002004B070BD70B50089AD4EFD
:202DE00084B204EB4405306810F8250008F0D8F8204608F0BAF9306810F8250008F0D0F842
:202E0000002070BD7FB5018910228EB281898DB2018A8CB2416E684603F03CFC6B46224682
:202E20002946304608F03FFB0020D4E77FB5067A057B047C416E1022684603F02BFC6B4692
:202E400022462946304607F0B9FF0020C3E710B5806809F0E9F8002010BD10B5806809F092
:202E600094F9002010BD10B5806810B109F0FAF901E009F033FA002010BD10B5806800B12C
:202E8000012009F030FA002010BD10B505F090FB002010BD10B509F0C9FD09F0C7FD00206E
:202EA00010BD10B5027A017B008A84B2104608F09EFC28B1A4F57F41FF3901D0210401D4AB
:202EC000042010BD214608F0FEFD002010BD2DE9F0410446008994B01FFA80F8277B257C88
:202EE00000200EAE02E03054401CC0B2A84201D21428F8D300200090684605F0D5F9019646
:202F0000ADF80A506069FF289DF81D0002D040F0400001E020F040008DF81D00A08AADF82C
:202F200028009DF81C00ADF8128067F306008DF81C00684605F02DFA002800D0012014B0D9
:202F4000BDE8F08170B5047A53A09CB0D0E90010CDE9191052A00EAD0FC885E80F0054A0DD
:202F600012AD0FC885E80F0055A0002507C816AB009583E807005548554EADF80850032C22
:202F800020D0042C1ED0052C20D0062C27D019A801900620ADF80A00022009F0F6F84D4814
:202FA00009F042F8684605F07FF9012C1BD0022C2FD0032C41D0042C3FD0052C43D0062C89
:202FC00041D016E00EA901910D2102E012A901911021ADF80A1009F0D8F83046E0E716A98F
:202FE00001910A21F5E79DF81D0020F040008DF81D009DF81C0020F07F00C01D8DF81C00D6
:20300000032C26D0042C24D0052C22D0062C20D006E09DF81C0020F07F00801D8DF81C00BE
:2030200040F20540ADF8100040F20760ADF81200ADF82850062C18D023E09DF81C0020F019
:203040007F001A30DAE79DF81C0020F07F001230D4E740F60C30ADF8100040F60E50ADF849
:2030600012000120ADF82800E4E79DF81E0040F080008DF81E009DF81C0040F080008DF899
:203080001C00684605F085F91CB0002070BD002070470000608620000102000000000000FA
:2030A0008011010203040506070000000000000080110102030405060708090A000000009B
:2030C000010200000000000000000000040302010A0908000302010010B5032801D30020DE
:2030E00010BD1A4900EBC00001EB800408221849206846F487F698B1A2696168E06846F41C
:20310000CCF6E269A168206946F4C7F6216A606946F484F720680E4902680A60406848600D
:20312000012010BD70B5094D002404EBC400082255F82000064946F465F620B1641C032C54
:20314000F3DB032070BDE0B270BD0000408020001484200010B5FF4C0022FD492046F4F731
:203160007EDCFD494FF4000016F0E5FD002808D0F948F7490122037830312046F4F76FDC68
:20318000012010BDF4480078FF2801D016F0C0BD704738B5054601460220F8F744DF04465E
:2031A0000090EB49EB482B4602227031401EF4F756DC204638BD70B50D460024F9F760DB45
:2031C00060B12844FFF7E5FFE149E248234601229C31401EF4F743DC204670BD5324F3E79F
:2031E0002DE9FC470D461646DFF86893D849CDE9005604460346A9F1010900270322C43150
:203200004846F4F72CDCA4F57F40FE3814D013F41FF3804632462946204634F4D6F2074652
:20322000404613F422F33B460122CC494846F4F716DC3846BDE8FC8700240520F8F780DE8C
:20324000054413E06A4604212846F9F756D90098401C09D0C149BF48234601222C39C01E23
:20326000F4F7FDDB6E27DEE7641C2D1DB4EB960FE8D3D8E72DE9F8430E460024A0F57F418B
:2032800091468046FE391BD0F9F7FADAE0B187193846FFF77EFF4A4631464046FFF7A0FF67
:2032A000050002D0641C032CF2D3AC49234602222831A8480095F4F7D2DB2846BDE8F8833D
:2032C0000520F8F73DDEE1E79A25EEE72DE9F05F04460025F9F7B5DA90F0010F42F2917744
:2032E00042F2927842F2937942F2947A42F2957B0ED0BC4207D0444505D04C4503D05445BC
:2033000001D05C452ED10420F8F756DE054629E00220F8F715DE0646EDF758DFB04203D170
:203320000320F8F70DDE064642F290718C4202D14FF4805516E0BC4207D0444505D04C459C
:2033400003D0544501D05C450CD13046F9F72CDA40B106EBC400A0F5A030D0F81455681C86
:2033600000D100252846BDE8F09F2DE9FC410E46089C4FF000011D00174621600FD0A0F5BB
:203380007F41FE3907D0FFF7A1FFDFF8C8C1ACF1030C3EB115E00520F8F70EDEF5E740F2CB
:2033A000AF101CE0AB6803F58063834209D96B490090022254316046F4F751DB4FF4E3707D
:2033C0000DE0F11981420ED9CDE9007063493346032294316046F4F742DB40F2CF102060D8
:2033E0000020BDE8FC810120FBE72DE9FF5F8246009116460020CDE901600D465749554898
:203400001C4653460322E831401EF4F728DBB00702D040F237205BE03CB14FF6FE7B504699
:20342000DA4505D0F9F72CDA05E040F23D204FE00520F8F785DD07000AD002A80090234605
:20344000324629465046FFF790FFE0B31DB10DE04FF416703CE06088534640F08000608026
:2034600002223F493B480097F4F7F9DA290505EB06090DD0290BB1EB193F05D078193044BC
:203480006FF30B00FFF785FE07EB0508002523E07819F7E708EB050007462168F9F709D811
:2034A00047F0807003A9F9F73CD820680399884210D008EB0500CDE9001029490322483199
:2034C0002448236800E00EE0F4F7C9DA40F28A20029008E0241D2D1DB542DBD3DA4502D121
:2034E0002049C1F800901E491A4801228431401E029BF4F7B4DA029804B034E70146012034
:20350000A1F57F42FE3A02D0084634F4F3B0154A002111607047F8B50446A0F57F404FF4FB
:203520000015FE3824D0FFF715FE95F89A03800602D50120F6F7E5DD204634F47AF10646A7
:2035400095F89A03800602D50120F6F72EDE0BE0DC1F800803311021AC80200010218008F2
:20356000342280081C842000FFF70CFE3046F8BD2046FFF7C3FF0520F8F7E2DC40F080746E
:2035800095F89A03800602D50120F6F7BADD2046F9F704D9064695F89A03800602D50120D8
:2035A000F6F703DE6A4604212046F8F7A6DF00986A4620F40000009004212046F8F765DFE4
:2035C000D4E7000038B51346040002D0012C18D103E00A464FF4FA6102E00A4640F698012C
:2035E0001846F8F799D960B1FB490978C90706D0009023460222F949F948F4F730DA0020DB
:2036000038BD012038BD002818D0F649D0E900300A7801EBC202C2E9013008780A22401C51
:20362000B0FBF2F302FB13030B704878834205D1401CB0FBF2F302FB13004870704770B581
:2036400004004FF0000519D001464FF4007038F4F2F498B92078FF280ED16078FF280BD163
:20366000A078FF2808D1E078FF2805D12079FF2802D16079FF2801D0012506E0D749D8482D
:2036800000227831401CF4F7EAD9284670BD002806D0102904D1D3491022743146F4FDB3D1
:2036A00070472DE9FF41CF4E040006F154068846B0694CD0532121704B2262705922A270B7
:2036C0004FF04D0C84F803C04522227161714821A171E71D002569460A2308E090FBF3F26F
:2036E00003FB120290FBF3F030324A556D1C0028F4D105E02A1A0A4412F8012C3A54401C3B
:20370000A842F7DB54FA85F080F807C0B078000901F091F854FA85F10872B07800F00F00DB
:2037200001F089F854FA85F148727078000901F082F854FA85F18872707800F00F0001F0A7
:203740007AF854FA85F1C8720C3588F80050237804B0A249BDE8F041A14801229C31401CA3
:20376000F4F77D992DE9FC5FDFF878820546A8F1340890F80090D8F804000024FF269246D9
:203780000F4600286DD0F81E1E286AD2DFF850B292490BF1010B4B460222C0315846009740
:2037A000F4F75DD9B9F1C60F24D1D8F8041004EB840001EBC00090F82120012A14D16A79B5
:2037C00043799A4210D1AA79807982420CD16979D0B2CDE900018149264623460322F431AF
:2037E0005846F4F73CD903E0641CE4B20A2CDED3FF2E0DD1D8F80400002404EB840100EBE9
:20380000C10191F8211071B3641CE4B20A2CF4D30A2E26D2D8F8042006EB860602EBC600A1
:203820004FF0010980F821900021416280F8207004EB840002EBC000202146F411F4D8F8DA
:2038400004003A4600EBC600294646F426F3BAF1000F0BD0D8F80400032100EBC60080F8BB
:203860002210BDE8FC9FFFE72646D1E7D8F8041001EBC60181F82290F3E72DE9FE430024B5
:2038800000F0ECFF574D0746343D686800287DD03946286A00F0E6FFB0F5487F7CD3DFF82E
:2038A0004891A8462F62D8F8040004EB840500EBC50090F82120012A70D190F82220002A8B
:2038C0006CD0406AE0B3394600F0CCFF0646D8F8040000EBC500406A18B1B9F80200864277
:2038E0005CD3B9F8020086420FD3FAF771FF0B21B0FBF1F201FB12006FF0180148434FF4CD
:203900007A6101EB8001A9F8021004EB8402D8F80400B9F8021000EBC202444692F820209D
:203920000092CDE90161DFF8B88010F8353008F1010804222D494046F4F791D800260AE0D9
:20394000FFE70026CDE72949835D01223C314046F4F785D8761C606800EBC50090F8201035
:20396000B142F0DC616801EBC50290F820102048FEF712FE606800EBC50090F82210491E4E
:2039800011F0FF0180F82210476201E004E005E002D180F821104162BDE8FE83641CE4B2CE
:2039A0000A2C80D3F8E7F0B500252B46052848D10C483438446803EB830004EBC00090F80A
:2039C0002160012E3ED18679477947EA0626B14238D1092929D20DE0BC802000D822800818
:2039E0000030102154842000AE802000F8238008BC832000DFE801F019050505050B0B0B18
:203A00000B0003EB830104EBC101CD790DE003EB830104EBC101457A897A45EA0121057A90
:203A200045EA0121C57945EA0125954209D103EB830204EBC202002182F8221080F8211055
:203A40004162F0BD5B1CDBB20A2BB4D3F0BD2DE9F041054617460E46092D2CD2DFE805F076
:203A60002B050505050707070700012400E00424FE482021804646F4F3F2FC48E11D4C388C
:203A8000C62280F86C1080F84C20942280F84D20002280F84E20232280F84F2080F850705F
:203AA0002A0A80F8515080F85220F2B2012C0AD0042C0BD012E02B46BDE8F0410122EC4988
:203AC000EC48F3F7CC9F80F8532007E000F8532F320A4270320C8270320EC27027B1002287
:203AE0004046BDE8F0413DE60122F9E72DE9F0438BB00027019702971578DD49DFF87493D7
:203B00001446064603460222303148460095F3F7A6DFDFF8588302210422A8F14C08C52EC4
:203B20005FD04FF0030CC62E08D0C72E1FD1342D1DD188F841C08DF8041015E0222D0ED0CC
:203B4000212D17D0182D12D1B4F80130092B41D2DFE803F0403131313133333333008DF8D5
:203B6000042060788DF8050001A8FFF74CFD0BB0BDE8F0836388092B19D2DFE803F0180523
:203B80000505050707070D0020790AE02079D4F8051040EA012004E02079617940EA01200A
:203BA000C0B28DF804C061788DF805100EE0B04901226C3111E0E07803E0E078616840EAB9
:203BC000012005218DF804108DF80570ADF806300290C9E7A6490122A0314846F3F73FDF75
:203BE000C5E7C5249426012D2DD0032D39D0052D55D0072DBBD1202103A846F431F28DF82D
:203C00000C408DF80D6008208DF80E708DF80F0098F806008DF8100098F805008DF8110051
:203C200098F804008DF8120098F803008DF8130098F802008DF8140098F8010000228DF8CB
:203C400015000A2127E0D8F8180003978DF80C408DF80D608DF80E70049705978DF80F10FA
:203C60000CE0D8F81C0003978DF80C408DF80D608DF80E70049705978DF80F208DF810008C
:203C8000010A8DF81110010C8DF81210000E00228DF81300082103A8FFF764FD67E720213D
:203CA00003A808F1070846F4DBF18DF80C408DF80D608DF80E7006208DF80F001022414612
:203CC00004A846F4EAF000221421E4E76A48FEF7F6BC7CB5654CD43CA078401CC0B2A070C1
:203CE000102805D801F0E8FC022001F0B3FC7CBD0125112811D08DF800506846FFF783FCA7
:203D0000E068002520B15948C83812F4BCF7E560A570012000F0C8FE7CBD01F0D1FC534848
:203D200001214C3880F86D50002001F02BFD4F484FF4FA71C83812F482F77CBD38B54F49ED
:203D4000032808701AD2DFE800F019190200474CD43CE068002811D149480090002301228D
:203D60004FF4FA7147A002F09CFBE060002805D004F10C00BDE8384012F450B738BD3F4940
:203D800000200978022901D0042900D1012070471CB5364CD43C606928B104F1140012F49C
:203DA00072F7002060610D20ADF800000220ADF802006846FDF78CFE1CBD38B52B4C41F282
:203DC0008831D43C6069002818D104F188000078552800D12D492E48002300901A462DA031
:203DE00002F05FFB6061002808D02048C03812F415F7BDE83840002000F056BE38BD1B48AB
:203E0000D438406918B11948C03812F43CB7184918480022D431401CF3F7219E1CB5134CB5
:203E2000D43CA06928B104F1180012F42CF70020A0610D20ADF800000320ADF802006846EF
:203E4000FDF746FE1CBD38B508B1C82800D90120064CD43CA169002930D11149009141F20D
:203E6000883110FB01F100231A461BE0F48420004024800801301021ED3A8100AE80200032
:203E8000D33C81007072766F6B00000020BF0200913D8100756E70726F762063616C6300D3
:203EA0001D3E8100F7A002F0FCFAA061002805D004F11800BDE8384012F4B0B638BD2DE908
:203EC000F0414FF4A363F24A5821002011F474F705004FF0FF3750D040F21D53EC4A402150
:203EE000002011F469F7040047D0402146F496F0284600F00BFE284600F018FEE54E0122D0
:203F000006F10801307A2070284601F0D7F9D6F80900C4F80100B6F80D00A4F80500062220
:203F200006F10901284601F0C9F906F12801E01D10220E4645F4B1F710223146284601F0D3
:203F4000BDF9D449284638310E4601F0F0F9284611F491F704F117001022314645F49DF70C
:203F6000224640210020FFF72DFB0028204606D011F481F70020BDE8F0813846FBE711F4BE
:203F80007AF70022C449C548F3F769DDF5E710B5C04C803C6078401CC0B260700A280ED94C
:203FA000A06828B104F1080012F46DF60020A06001F086FBD0210320FAF771FCFEE701F0E0
:203FC0007BFBBDE81040022001F044BB38B5B14C803CA068002810D1B148009000230122DE
:203FE0009621B0A002F05DFAA060002805D004F10800BDE8384012F411B638BDA64910B5E4
:2040000000224C39A548F3F72ADD08F029FB05F06BFABDE81040002003F01BBB2DE9F0477A
:2040200000F01CFC0446A1489A4F00264178803F09B1F96AF9B12146F86A00F013FC962871
:2040400050D3944DDFF8549208354EF6602895F84130032B17D295F8400070B12146686C58
:2040600000F000FC404502D300F01FFCAC6495F84100401C18E0467031E001228C49484670
:20408000F3F7EDDCF0E72146A86C00F0EBFB034640450BD38649012224314846F3F7DFDC1F
:2040A00000F003FC0120AC6485F8410095F84000012814D12146686C00F0D4FB7D498842BD
:2040C0000DDB85F840606E677248AE64202154306E6445F4C5F785F86C6085F8706000F028
:2040E000BDFBF8620120BDE8F087F0B5694E85B0803E0025B06A06F1880468B100F0AEFBAE
:204100000146706A00F0AEFBB16A884204D3B562606F40F0010060675E4A4C3A11785078CC
:20412000814228D002EBC001401CD1E90131CDE903310A21B0FBF1F301FB130050709DF8C6
:204140000D00BDF80E2004998DE807005249534F9DF80C30042280313846F3F780DC9DF818
:204160000C00062867D2DFE800F066030731536100F0E9FB65675EE094F8400050B100F025
:204180006DFB4B4903466064012230393846F3F766DC50E000F0D7FB6567FAF719FB5021AC
:2041A00090FBF1F201FB120000EBC00101EB0010322101EB4000B06200F050FB3C497062B8
:2041C000002258393846F3F74ADC34E094F8400008B900F0B8FB94F8400001282BD1BDF8B4
:2041E0000E00022827D1049810F0FF0084F86D00616F41F0010161679DF80D1084F8701092
:2042000004D00121002001F0BDFA14E00021F9E794F8400008B900F096FB94F840000128E8
:2042200009D1606F40F00100606704E0BDF80E10049AFFF7B8FB94F86F0000284DD094F813
:204240006E10002949D0012802D0022836D040E0C8070ED094F86D0078B1002084F86D007B
:20426000616F41F00101616748B10121002001F089FA207855281FD02BE00120EEE700219E
:20428000F4E700006368616E6765207363616E0000A88200A084200090258008013010210B
:2042A0008F3F81007265737400000000AE80200090268008905F0100FF2005E0FFF79EFEDF
:2042C0002078552803D055202070FFF7F8FDFFF77DFE84F86F5084F86E5005B0F0BD70B599
:2042E000FE4E3078002843D0FFF749FD040006F188051CD0FFF7F9FEFFF790FE002837D03F
:2043000095F8400001280FD1686FC1070CD020F00100686795F8702095F86D100220FFF72D
:2043200096FB002085F87000FFF7A7FA01E000F0D2FA01F0C9F900281AD124B195F8400043
:20434000012804D002E02878552804D00020BDE8704001F07FB900F081FA04460146306B58
:2043600000F080FA962803D9022001F073F9346370BD7CB5408860B1012811D0D74CFF259B
:204380008834022810D0032837D12078552817D019E0FFF7A4FFBDE87C40002001F0CBBA9F
:2043A000BDE87C4000F011BB05F09EF8012000F07BFB2078552820D12570BDE87C407EE56F
:2043C0002570FFF77CFD002003F043F94FF4C870ADF800003020ADF804000222694604207A
:2043E00003F081FB022201A9052003F07CFB012003F02FF9012000F057FB7CBDB748C169F0
:20440000002907D00021C16100F11C0204210120FFF7D8B870472DE9F04186B040F24A537B
:20442000AF4A5821002011F4C7F405004FF0FF386ED040F24F53AA4A4021002011F4BCF473
:20444000040065D0402145F4E9F5284600F05EFB284600F06BFB0026402220464FF4FA61A4
:20446000F7F751DA002856D09E490978C90706D00090334602229C499C48F3F7F0DA0020FD
:204480009A4E761CF0B3954F207880370122387207F10801284600F011FFD4F80100C7F804
:2044A0000900B4F80500A7F80D00062207F10901284600F003FF07F12800E11D102207466F
:2044C00045F4EBF410223946284600F0F7FE01A9284600F02CFF284611F4CDF47F4804F19D
:2044E0001701B8301022054645F4D7F4102201A9284645F487F40028204615D011F4BBF416
:20450000002201E009E003E079493046F3F7A7DA404606B02FE50120B2E7204611F4ABF415
:20452000734900222439F0E711F4A5F40020F0E710B56A4C00208834014694F84020012A1F
:2045400012D1664A526801EB810302EBC30393F82130012B03D0491CC9B20A29F3D30A2904
:2045600003D1616F002900D1012010BD5B4B10B58833044693F86D3002464BB10121002091
:2045800001F03DF92146BDE81040002001F07DB80021F4E770B551484FF004568830002423
:2045A00090F84020436F53A13046F3F701DA4B4D04EB8401686800EBC10292F82120012AB2
:2045C00006D110F83130224652A13046F3F7F0D9641CE4B20A2CEBD370BD1CB50D20ADF83D
:2045E00000000020ADF802006846FDF771FA1CBD38B53A4C2069002810D14D4800900023C1
:20460000012232214BA001F04CFF2061002805D004F11000BDE8384012F400B338BD2F4838
:204620000069002803D02D48103012F41BB370472A480069002803D02848103012F4EEB2AA
:2046400070472DE9FE4F0024DFF8A090274609F1010901942246394948460294F3F7FFD93F
:204660001E4E71208836B16901B9B061F1690B2001B9F061F07932A118B90F22F01D15F0BA
:20468000F6FAFFF7C8FE054601A8FEF7D8FFDFF84C8008F1800860B10622711C01A845F4E2
:2046A000B1F3C8B14046019940F8091FBDF808108180601E284379D020492B460222183116
:2046C00048460094F3F7CBD907F0CAFF034D4FF0FF3AA835102437E03EE000002084200098
:2046E00017A88200BC8020001423800800301021D82580086D496F744D616E616765722EF6
:20470000616C6976655F7374617475732025642025640A006275666620696E646578202509
:2047200064202C20636F646520253032580A0000DB4581006D61696E00000000DC26800835
:20474000535150314D3031005046F3F732D80146042C03D9042002E00124AAE72046221A4B
:20476000D4B202E005F8011B090A401EC0B2F9D2002CB0D1942086F8200086F8217071206B
:2047800086F8220086F8237086F8247086F82570D8F80910C8F82E10B8F80D10A8F83210AD
:2047A000FF203070FFF78BFB05E0FFE700226E494846F3F754D9012586F86D502946002085
:2047C00000F0E0FF00243019674990F8200000902346022224314846F3F741D9641C102C85
:2047E000F1DB86F8417006F8407F20217763B7605E48776045F434F45C4C86F82C70D43C1F
:2048000086F83070606858B940F21523584A4FF4C871002011F4D0F2606008B100F029F8A8
:204820005248213001F08DF82570012000F032F90020BDE8FE8F092801D8303004E0A0F115
:204840000A01052902D83730C0B200E0FF20A0F14101192901D82030C0B2704710B511F43C
:2048600096F710BD814201D3081A7047C0430844704770B53D4E0024D43E7068002813D09F
:204880000025716804EB840001EBC000202180F8225080F82150456280F8205045F4E0F34C
:2048A000641CE4B20A2CECD370BD0EB500200090C7218DF8001094218DF801100190029062
:2048C0008DF8020033208DF80300002204216846FEF748FF0EBD10B5244C4C3C94F86F00C2
:2048E00000282FD094F86E1000292BD0012802D0022817D021E0C8070AD094F86D0058B1AB
:20490000002084F86D0048B10121002000F03AFF2078552804D010E00120F2E70021F4E75B
