:0200000400807A
:20E00000050001019327000030F501006D67DEF13E33E811B1024D2DF40CDE0100E480009C
:20E0200000E480000000000000E0800000000000000000000000000000000000000000001C
:20E040000000000000000000000000000000000000000000000000000000000000000000C0
:20E06000211000C030A6A28D73646B232323232300000000000000000000000000000000B9
:20E08000000000000000000000000000000000000000000000000000000000000000000080
:20E0A000000000000000000000000000000000000000000000000000000000000000000060
:20E0C000000000000000000000000000000000000000000000000000000000000000000040
:20E0E000000000000000000000000000000000000000000000000000000000000000000020
:20E100000000000000000000000000000000000000000000000000000000000000000000FF
:20E120000000000000000000000000000000000000000000000000000000000000000000DF
:20E140000000000000000000000000000000000000000000000000000000000000000000BF
:20E16000000000000000000000000000000000000000000022B265066F3B14F51662B44E33
:20E18000427D49328C9CB03F5F8B05A840723655E8329A4200000000000000000000000064
:20E1A00000000000000000000000000000000000000000000000000000000000000000005F
:20E1C00000000000000000000000000000000000000000000000000001D1850E00B58200A3
:20E1E00000000000000000000000000000000000000000000000000000000000000000001F
:20E200000000000000000000000000000000000000000000000000000000000000000000FE
:20E220000000000000000000000000000000000000000000000000000000000000000000DE
:20E240000000000000000000000000000000000000000000000000000000000000000000BE
:20E2600000000000000000000000000000000000000000000000000000000000000000009E
:20E2800000000000000000000000000000000000000000000000000000000000000000007E
:20E2A00000000000000000000000000000000000000000000000000000000000000000005E
:20E2C00000000000000000000000000000000000000000000000000000000000000000003E
:20E2E000FFFFFFFFFFFFFFFFFFFFFFFFFFFFFFFF000000000000000000000000000000002E
:20E300000000000000000000000000000000000000000000000000000000000000000000FD
:20E320000000000000000000000000000000000000000000000000000000000000000000DD
:20E340000000000000000000000000000000000000000000000000000000000000000000BD
:20E3600000000000000000000000000000000000000000000000000000000000000000009D
:20E3800000000000000000000000000000000000000000000000000000000000000000007D
:20E3A00000000000000000000000000000000000000000000000000000000000000000005D
:20E3C00000000000000000000000000000000000000000000000000000000000000000003D
:20E3E00000000000000000000000000000000000FFFFFFFFFFFFFFFFFFFFFFFFFFFFFFFF2D
:20E40000004800477FE58000AFF3008000F006F81FB51DF06AF81CF048FA1FBD00F0F6F92D
:20E420001146FFF7F5FF03F0F8FA4CF4FBF4000010B57D4A7D497E484BF42FF57D4A7E497E
:20E440007E484BF42AF57E497E484BF4E7F57E4A7E497F484BF421F57E4A7F497F484BF4AF
:20E460001CF5BDE810407E497E484BF4D7B57FB54FF40010F0E9E0121144806810220D1858
:20E48000294668464BF409F5102269460020F8F7A1DF7549D1F87C11744E60F31F414FF0EA
:20E4A000FF30F160F9F785D9F1684843F0601CF0E7F9002400F088F945F82400641C042CC8
:20E4C000F8DB00F081F9F0607FBD70B5684D6949694C28684FF00002B1EB002F05D020465B
:20E4E000BDE870406549F9F7BA9A002145F20600FDF7BFDD10F0FF0303D0604901221C31F9
:20E5000004E028685D49030E012250312046BDE87040F9F7A49A38B572B6FFF7D6FFFFF76D
:20E5200087FFFFF7A4FF002005F0B6FD162000F00EFA172000F00BFA51A11F204BF45AF4DC
:20E540004FF005554FA12846F9F78FDC044654A12846F9F78ADC03464849474802227C312C
:20E56000801E0094F9F77BDA00F0FCF94F480068002803D001B0BDE83040004738BD10B57E
:20E58000FEF7EED800284ED14FF4001090F8DC12C90748D0AFF28101454A1160464A454987
:20E5A00011604FF4F041C0F8841348F6F031C0F888134249C0F8CC1390F84D1321F0080151
:20E5C00080F84D13062180F84F1390F8782390F89A1342F0260280F8782321F0210180F8F2
:20E5E0009A1390F8341341F0010180F8341390F87A1321F0100180F87A1390F8C31321F002
:20E60000C00180F8C313F02180F820133C2180F82113C82180F82213FF2180F82313BDE81D
:20E62000104000F04DB810BD24010000E4D68200007C20002801000008D88200247D20007F
:20E640001C0900004C7E20000000000030D9820000C021000000000030D9820000C02100D3
:20E660000000000000C02100008005404C7E2000247D200000746572020310210000800840
:20E6800043000000467269204D61722032302031373A31323A3530203230323000000000AC
:20E6A000312E322E312E323438000000547E2000380C20004DE880003C0C20000000F782B2
:20E6C000082000F04BB80000042800D904204FF40013042983F8FC0200D9042183F89411DC
:20E6E000032A00D9032283F8952170474FF40011027881F89721427881F89821827881F8A9
:20E700009921C27881F89A21027981F89B21407981F89C0170472A482A49016070474FF45B
:20E720000011D1F8142360F34102C1F8142370474FF40013B3F8DC2260F3082261F34B224E
:20E74000A3F8DC2270470A2802D94FF4205000E080024FF40011C1F8E80270474FF4001145
:20E7600081F8F10270474FF4001282F8100382F8251370474FF4001181F8110370474FF450
:20E780000011A1F8120370474FF40011A1F8260370474FF4001181F82F0370474FF400112C
:20E7A000B1F8DC2260F34102A1F8DC2270474FF4001383F8FD0283F80E1383F82E237047DF
:20E7C00036022000C62004010B49D1F800C04A685CF8043B1068184442F8040B8C4528BFFF
:20E7E000A1F1DC0C8A4228BFA1F1DC02C1F800C04A6020F000407047608720004FF00050BC
:20E800001049EFF30582104B9847FEE770474572726F722120506C6561736520696D706CE9
:20E82000656D656E7420796F7572204953522048616E646C657220666F722049525120252C
:20E8400064210A000EE88000B179000010B54FF4001494F89B0340F0800084F89B0394F8ED
:20E86000DC02C1074FF0045003D06CA1F9F7A0D806E06DA1F9F79CD803F463F017F4A1F7D2
:20E8800094F89A03C00702D00020F9F7A3DCBDE81040FFF7B9BD40EA01210120F8F7009DCD
:20E8A00010B54FF40014002294F84C1360F3010184F84C13114645F20200FDF7DADB00289E
:20E8C00005D194F84C1321F0030184F84C1310BD01464FF489635F4A002017F441B25D4AD6
:20E8E0004143D21D40F24D43002017F465B210B50C4608B117F4BFF2564A21460E32BDE829
:20E90000104040F25743002017F42AB217F4B3B2514AD170514A1268002A00D0104770476B
:20E920004F4A1268002A00D0104770474D48006870474A4810B50E224B4910304BF4ADF2CF
:20E940004648103010BD4848801E0078704700F01F02012191404009800000F1E020C0F849
:20E96000801170472DE9F0473A49BEB0402218312DA84BF419F33749B422583168464BF47A
:20E9800013F33C494FF40010384E394F096805460024A94201D0F6F787D9DFF8DC804FF030
:20E9A0000559DFF8D8A02FE06CB3012C2BD056F82400404500D038B9404524D155F82400B1
:20E9C000A0F5807155391ED1102C09D22DA850F824104846F9F749DA0346012228490BE063
:20E9E000684600EB840050F8401C4846F9F73DDA23490122034624315046F9F730D856F8B8
:20EA0000240045F82400641CB4EB970FCCD3BFF35F8FBFF34F8F3EB0BDE8F087496E2053A9
:20EA20006F43204D6F6465005741524E494E473A20496E20484349204D6F64652C20776993
:20EA40006C6C206E6F742072756E20415050205461736B0020B58200247D20004C7E200042
:20EA6000507E2000F4002000F5282000F0D58200F400000008ED00E0FDE7800001011021B0
:20EA80009C008008F0B54FF490777B06C0F38166C1F341754FF4A07E40EA0104012A06D04D
:20EAA000B9426FD071456DD010296BD04BE0A1F1C04CBCF1400C18D0B1F1C24F20D0A1F1D6
:20EAC000C04CBCF1100C03D0DFF8F0C2614524D1D3F80CC24CF0806CC3F80CC2D3F80CC287
:20EAE0004CF0006CC3F80CC227E0D3F80CC24CF0806CC3F80CC2D3F80CC24CF0005CF1E78B
:20EB0000D3F80C4244F08064C3F80C42D3F80C4244F08054C3F80C4215E0DFF8A4C26145B9
:20EB20000BD1D3F860C34CF4007CC3F860C3D3F848C34CF0100CC3F848C3B9421DD07145DF
:20EB40001BD0102919D020F0406321F0C0404FEA860101F18041012AD1F8102218D09A4386
:20EB6000C1F81022A90001F18041D1F82C22824322EA4000C1F82C02F0BDD3F82002204342
:20EB800003E0FFE7D3F82002A043C3F82002F0BD1A43C1F81022A90001F18041D1F82C2297
:20EBA000024342EA4000E5E7864B4FF08042984216D1D2F8340220F48030C2F83402D2F8C7
:20EBC0005C0320F4C010C2F85C03D2F85C0340EAC140C2F85C03D2F8340240F4803018E090
:20EBE000794B984217D1D2F8340220F48020C2F83402D2F85C0320F4C000C2F85C03D2F80B
:20EC00005C0340EA4150C2F85C03D2F8340240F48020C2F8340270476C4B9A04984216D130
:20EC2000D2F8380220F00100C2F83802D2F85C0320F4C030C2F85C03D2F85C0340EAC13041
:20EC4000C2F85C03D2F8380240F0010018E0604B984217D1D2F8380220F00400C2F83802F5
:20EC6000D2F85C0320F4C020C2F85C03D2F85C0340EA4140C2F85C03D2F8380240F0040039
:20EC8000C2F838027047534B5A04984218D1D2F8340220F00100C2F83402D2F85C0320F4CC
:20ECA000C060C2F85C03D2F85C0340EA4120C2F85C03D2F8340240F00100C2F83402704776
:20ECC000454B9842FBD1D2F8300220F48050C2F83002D2F85C0320F4C050C2F85C03D2F802
:20ECE0005C0340EAC120C2F85C03D2F8300240F48050C2F83002704730B54FF4A074230689
:20ED0000C0F341724FF49075012906D0A8421ED0A0421CD010281AD005E0A84213D0A042E9
:20ED200011D010280FD001294FEA820101F1804120F0C040D1F82C220FD0824322EA40002B
:20ED4000C1F82C0230BDD3F82012014302E0D3F820128143C3F8201230BD024342EA400070
:20ED6000EEE7C0F381624FF08043012906D002281CD004281AD0012818D005E0022811D0F9
:20ED800004280FD001280DD001294FEA820101F1804120F04060D1F810220DD08243C1F8C3
:20EDA00010227047D3F82012014302E0D3F820128143C3F8201270470243F0E70000016065
:20EDC0000040002000300140003401400050014000540140002001400010014010B5C26826
:20EDE00022F08002C260002242604269826842F006028260C26842F08002C260026A22F06A
:20EE0000F0020262026A8B8842EA03120262C269754B1A40C261C2690B8842EA0342C261BE
:20EE20008A7802604A88120A4260C26822F08002C2600A894B891A43CB881A43C260CA8915
:20EE4000012303EB02220B8A1A438260026922F02202026102698B891A4302614A8A02642B
:20EE60000A8A082A1AD1CA8A52B1826A22F0F8028262826A0B7D022444EAC3031A438262DF
:20EE80000A8B002A0AD0826A22F47C528262826A497D042343EA01210A43826210BD534963
:20EEA000884203D10022524952480DE05249884203D100225149801406E05149884205D1C7
:20EEC0004C4800224F49401CFFF7DCBD7047142141800C21818040F2522101800021018155
:20EEE00041810122C280018281811023C38142820F2303754275C1820183704702E0436ABD
:20EF000001F8013B521E92B2F9D2704702E011F8013B4362521E92B2F9D270470B060DD591
:20EF2000012A13D0036C23F000430364436C43F001034364836C23F0010383640B0704D037
:20EF4000012A426813D08A4342607047036A43F008030362036A23F008030362836C43F0B1
:20EF600001038364036C43F000430364E6E70A43EAE702460020B1F5807F04D052690A4287
:20EF800000D001207047516CC907FAD170470129016903D021F010010161704741F01001D6
:20EFA000FAE710B5C46844F08004C460046A24F0F0040462046A44EA02120262C2690A4C32
:20EFC0002240C261C26942EA0342C261CAB20260090A4160C16821F08001C16010BD11435E
:20EFE0001943C16070470000FFFF00F80020014001000040010000080010014000100020BB
:20F000000040024000040020002263494FF48030FFF738BD614A14230244B2FBF3F2F0B53F
:20F020001B07D3F8604344F40074C3F86043D3F86043640505D5D3F8604324F48064C3F860
:20F0400060430725022A04D2D3F8606302EB420407E0941E062C0FD2D3F8606302EB4204B1
:20F06000E41DA540AE43C3F860638D88A540D3F860432543C3F86053032A03D0052A01D0FD
:20F08000072A10D191F824500124A71E012DD3F85C53A2F1010607EB560604FA06F418D007
:20F0A000A543C3F85C534C89002C0C8913D00C2545EA440484603A4C0D6944F822504C699A
:20F0C00004608C8D012C0CD0022A27D0032A2CD031E02543E5E7042545EA44048460CC6861
:20F0E000EEE74FF48054022A02D0032A0BD022E00D8E8A6AC98D42EA452244EA81210A4387
:20F10000C3F8642317E00D8E8A6AC98D42EA452244EA81210A43C3F868230CE0D3F86413AD
:20F1200021F48051C3F8641305E0D3F8681321F48051C3F86813C068F0BD0122028140F6BF
:20F14000FF71C1600021818080F824100286C1854181818570470029816802D041F00101EC
:20F1600001E021F0010181607047016070470029816802D021F0040101E041F004018160F9
:20F18000704710B5054B14240344B3FBF4F30260034840F8231010BD0040002000E0FFBFAC
:20F1A000B02000407FB504460020009001900290039010222146684608F040F86A46FE49ED
:20F1C0001046F9F7FADD054610226946204608F035F804B0284670BD7CB509F0E4FA0028DC
:20F1E0003ED108F081FE04003AD002202070012161700622A2701022E270FF2222715D22E5
:20F20000A4F80520E171A0600020E060651D42F29270FDF7E7DA006E0107C0F3071201EBE0
:20F220000251C0F30E3201EB421101EBD060E349C5F80B00097AC9070AD0D5F80710CDE972
:20F240000010D5F803300322DD49DE48F8F707DC02B02146BDE87040142203200AF057BD86
:20F260007CBD1FB502208DF80C006E20ADF80400CB200090D548D44B002201A9006816F4A2
:20F28000B1F6002808D0CE200090D148CE4B002203A9006816F4A6F61FBD38B5CD4C606990
:20F2A00050B9CD4800900023012241F28831CBA007F069FF606128B1BDE83840C54814309C
:20F2C00017F4ACB4BD480078C00707D0BDE83840BB4900225831BB48F8F7C19B38BD10B5D4
:20F2E000BC4C6069002805D004F1140017F4CBF40020606110BD2DE9FF5F00240A46029441
:20F3000010218DF80810B34F0A2103948DF8091007F12008B7F806C00126D8F80430254692
:20F320004FF00709BCF5006F0DD9BD8002208DF80A00180A8DF80C00180C8DF80D008DF89C
:20F340000B30180E14E0B988DFF894A2614504D0D8F81CC00B44634577D1B86938F405F261
:20F3600068B1BD8005208DF80A00D8F8040062E0CDE900968DF80E0002AB0422A3E04FF4F5
:20F38000001090F8140380060AD5B888001B102806DBB8692044FFF705FF1034A4B2F4E7F1
:20F3A00087494446012298315046D8F80430F8F756DB04F0AFFEA0896168BA88BB6904F060
:20F3C000F4FF4FF4805A20B300244FF0080BB8F80C00396904F0CFFE17F43AF2F861B8F875
:20F3E0000C004FF48052396938F4EFF18246F86917F43BF2BAF1000F28D0641C032CE6D3C3
:20F4000004F0A0FEBD803869C8F804008DF80AB011E004F097FEBA88D8F804001044C8F8D5
:20F4200004003969421A524502D301F580513961BD808DF80A60010A8DF80C10010C8DF893
:20F440000B008DF80D10000E92E742E0D8F804003969401AB0F5805F1ED900243969B8F895
:20F460000C0001F5805104F086FE17F4F1F1F8613969B8F80C004FF4805201F5805138F495
:20F48000A4F18246F86917F4F0F1BAF1000F03D0641C032CE2D3B3E704F054FEBD80386913
:20F4A000C8F80400020A8DF80C208DF80A90020C8DF80B008DF80D20000ECDE900968DF87D
:20F4C0000E0002AB0422B978002040F46BF1BDE8FF9F0B463A4900900222B0315046F8F739
:20F4E000BEDABD8006203EE72DE9F04F8DB0074600200590069007900B780E464C1C304973
:20F500008DF820300222E03135480097F8F7A7DA9DF820302F4D4FF0100B4FF0030A4FF017
:20F5200001090C2B0ED26BB12D4805F12008C01E0C2B7DD2DFE803F07C0CCAF9F7F6F5F4BC
:20F540007CF3F2F18DF814B08DF81530FF20AFE1112F6ED11F4901224A31032009F0C5F938
:20F5600098F82A00464610B1002008F0E4FE4FF4001090F81403800602D52046FFF712FECF
:20F5800023788DF8213062788DF82220A078E17800EB012080B2ADF823002179677901EB7C
:20F5A000072189B2ADF82510A77994F807C007EB0C27BFB216E000009C032000EC7D2000C7
:20F5C0001401800800301021F0B68200D07F2000CC7F20006C7E200063F28000646675000D
:20F5E00003311021ADF8277094F808C094F809800CEB082C94F80A80E47A4FEA084808EBE6
:20F6000004646444CDF82940CDE90020CDE9021704940622FA49FB48F8F721DA9DF8210021
:20F620003072BDF823007081BDF82500B08101E026E241E0BDF827103183DDF8291001F5A6
:20F640008061F161A0F51C51933938D0EEA10022EFA008F0E9FB86F82890EA684C4622B198
:20F660008DF801406946A878904704F053FDB0890DF121030C22002104F097FE08B3EA689A
:20F6800022B18DF801A06946A878904704F05AFDB08938F42FF038F43CF08DF814B08DF8D6
:20F6A00015408DF81640CDE900A405AB0422A978002040F477F06C700DB0BDE8F08FDAA1D6
:20F6C000C5E704F03FFD0C207060E6E7072F03D0CB490022C0312CE02078617800EB0120CC
:20F6E00083B2A8F80C30A078E27800EB022022796479120402EB04628018C8F8040001D06C
:20F700000C2802D10021A9802961BD49009002227C31BC48F8F7A3D9CEE760E145E119E122
:20F72000B9E06BE05BE036E0FFE7032F05D0BF490022B448F8F793D9BEE720786178444686
:20F7400000EB012083B2B949A8F80C3001226839AC48F8F784D9A08904F0BDFE044603461B
:20F76000B249A84801224039401EF8F778D914B18DF8169009E005208DF81600EA6822B1A6
:20F780008DF801A06946A87890478DF814B050468DF815A09FE0A549002224319948F8F7D0
:20F7A0005ED9142016F4E4F700203EF43BF2EA682AB102208DF801006946A87890471420CB
:20F7C00016F4D6F79AA14FF00450F8F7F1D804F0A1FC4FF47A7103200AF0BCFC6CE7934909
:20F7E00000224431F8F73BD997A14FF00450F8F7DFD8D4210320FFF74EF85DE7032F03D061
:20F800008A490022803194E720786178444600EB012080B2A0F51C51A8F80C00933938D00C
:20F82000FCF7E0DF006E0107C0F3071201EB0251C0F30E3201EB421101EBD0600023C4E977
:20F840000003AB808DF814B006218DF81510010A8DF81810010C8DF816908DF819108DF83D
:20F860001700000E8DF81A008DF81C306F498DF81D304C468DF81B308DF81E300122603180
:20F880007448F8F7ECD80920CDE9000405AB0422F1E00020D2E707218DF814B08DF815107B
:20F8A000092F0CD03B4601226B49F8F7D8D802208DF81600CDE900A905AB0422DBE098F800
:20F8C0002010C34661B1644900229C39F8F7C7D850468DF816A0CDE9000905AB0422CAE09B
:20F8E0007078B178C82200EB012087B2F078317900EB012084B27079B17900EB01201FFA3C
:20F9000080F8F079317A434600EB012086B26FF0010000EB440100EB470080B2CDE90020C4
:20F9200089B202912246394600203EF4AEF118B151468DF816A09AE08BF8209046493148D1
:20F94000CDE900483B4604225839401E0296F8F786D8B1E60022414940F275203EF48FF073
:20F960003D494446B8F8223001223C312548F8F776D885F800908DF814B009208DF8150022
:20F980008DF8169000208DF8170008208DF81800608C8DF81900000A8DF81A0007204946D2
:20F9A00005AB0422CDE9000165E0052FD1D120786178022200EB012083B2EB80A078E178ED
:20F9C00000EB012080B228812349009068310D48F8F745D82989E888FFF78DFC6CE68DF8D2
:20F9E00014B00B208DF8150002A942F2907037F45CF520B102208DF81600FF2034E02FE053
:20FA0000340280080331102170617463680000002573206265696E67206F74612D6564207C
:20FA20002533642525000000617070009003800864667520737563636573732C2072656287
:20FA40006F6F742100000000646675207265626F6F74210002331021DC048008AE7E20000E
:20FA60009DF808008DF816908DF817000421CDE9001905AB0422A97800203FF493F61BE65A
:20FA8000012288498848F7F7EADF15E62DE9FE43864D0446A5F1200688466868B188EA6996
:20FAA0008DE807007F49804F234604223C313846F7F7D5DFB0886B6801195A18E9698A4262
:20FAC00010D90090CDE9014176490422AC313846F7F7C5DF03B00022BDE8F04374497548BC
:20FAE000F7F7BD9F317841B1B1692246084441464AF4D3F1B08820443FE04FF4001090F834
:20FB0000140380060AD5002705E008EB0700FFF749FB1037BFB2E01B1028F6DAB188B0691C
:20FB20002246084441464AF4B8F1B088204481B2B1806A68E869801A401A09D04FF400620E
:20FB4000914205D0A04200D920460844904215D904F0E0FAA8896968B288B36904F025FC95
:20FB6000D0B104F0EFFAA88937F4C4F537F4D1F5B1886868084468600020B080B1886868AB
:20FB8000084464214843E96903B0B0FBF1F1BDE8F04349A008F048B904F0D4FAE8E710B567
:20FBA0000024DDE90201042A0BD0022A0CD040491346012220313F48F7F751DF40F20A40D0
:20FBC00010BDFFF791FC01E0FFF760FF204610BDF8B51C4600933649154606461346022227
:20FBE00054313448F7F73BDF052D10D1E0070ED034482E4C203C0670A069002807D140F221
:20FC00005533314A4FF4006116F4AAF0A061F8BDF8B52C490A78824221D1244CFF20203C9E
:20FC20000870A069002610B116F425F1A6611F4D95F82A0020B185F82A60012008F07BFBAB
:20FC400095F8280001280AD185F82860E268002A05D003208DF801006946A0789047F8BDA1
:20FC60003EB5044618484A38D0E90B12CDE90012A0F18001836AA82202A83FF4F8F430B154
:20FC80000A499DF8080020398870CC603EBD084908489DF8083001228031801EF7F7DFDE71
:20FCA000FF203EBD84058008033110218C7E2000A8068008023310210808080825336425ED
:20FCC00025000000287D200006B78200062804D2F84A22F810100120704700207047F5498E
:20FCE00031F810007047F34910B508390446C871F148007AC00704D00022F049F048F7F780
:20FD0000AEDEEC4900221C39EF48CA610A624A620178EC4A20463EF422F408B1002010BD2E
:20FD2000012010BD10B589B9E2494A8922B1E64909783EF4BEF458B1DF480078C00705D025
:20FD4000DE4900229031DE48F7F789DE002010BD012010BD1CB5C1B9D6490024CA880B89CF
:20FD600042F60211CDE90014D749521C92B209783EF4CCF458B1D0480078C00705D0CF49DC
:20FD80000022D431CE48F7F76ADE00201CBD01201CBD0EB5C74A53895BB1ADF80810022161
:20FDA00002AACDE90012C849012209783EF478F550B1C1480078C00704D00022C349C04828
:20FDC000F7F74DDE00200EBD01200EBD2DE9FC41B94E8046BA4F307A14460D46C00707D015
:20FDE000BA4900942B78022244313846F7F737DE307BC0070BD02A462146B548F8F785D842
:20FE0000B2490346012280313846F7F728DEA94903201C390870A748C38843B1AA48CDE9A0
:20FE200000450122017840463EF43AF558B13078C00705D0A549002290313846F7F70FDE83
:20FE40000020BDE8FC810120FBE71CB5994C02231C3C2370974B9B883BB1CDE900219A49EC
:20FE6000022209783EF41CF558B193480078C00705D096490022D0319148F7F7F0DD0020EC
:20FE80001CBD01201CBD2DE9FF5F8B4E002482468DF80040307A8846A146C00705D00B4645
:20FEA00001228C498648F7F7DADD824F864DA7F11C0BB8F1020F16D0B8F1060F2FD0B8F16E
:20FEC0000A0F36D03079C00705D08249002238317B48F7F7C4DD9BF80200D84601282DD03D
:20FEE000022847D143E0388808B97888A8B1307AC00705D07149002228317148F7F7AFDD15
:20FF00007B883A88297850463EF459F30028E2D001208DF804000124DDE70220F9E7687818
:20FF2000062804D2798827F81010062068708BF8029060481A3800F085FDCCE7F8883F8903
:20FF4000401C1FFA80F9307AC00705D05B49002258315B48F7F783DD3B464A4629785046E5
:20FF60003EF490F330B101208DF8040004E08DF8049001E0002C07D0D8F80C30002B03D056
:20FF80006A46514628789847BDE8FF9F2DE9F041494E4B4F1446307A0D46C00706D00B469B
:20FFA0004C49012278313846F7F759DD022D0FD0404A042D13D0052D34D03079C0072CD0F0
:20FFC0003846BDE8F04143490022B431F7F7479D21880020FFF77AFE618801202FE03A4D91
:20FFE0006878062805D22188491E22F8101006206870A01D1022384949F404F778B1364984
:02000004008179
:20000000A01D1022103149F4FDF6002805D1A1880320FFF75BFE04206870BDE8F081A188AC
:2000200002200CE06088A0F524510239F5D12188D0888842F1D210898842EED30520BDE843
:20004000F04143E62DE9F04186B0804602200C9F8DF808001848ADF80E101D46007A16464D
:200060000C46C00708D01B49CDE9006523460322FC311348F7F7F3DC0E484089B0420DD14E
:2000800000208DF80C004CB9022D07D13878797800EB012000F001008DF80D0005481C38D2
:2000A000C368002B04D0084802AA41460078984706B0B2E7D47E2000EC7D20005007800813
:2000C000003010212CB68200297D20006808800800005021780980081CB782001FB50321D6
:2000E000ADF80630FC4B8DF800105989914201D1012108E0D988914201D1002103E099888D
:2001000091420CD102218DF80410F3491C39CB68002B04D00146F1486A46007898471FBD4D
:200120007FB5ED4D0146089CED8840F60450954211D104208DF8000000208DF80400E6482E
:20014000ADF808301C380394C3681BB1E3486A4600789847002004B070BD10B5E04C02209A
:20016000606242F29370FCF73DDB0020206142F29270FCF737DB006E0107C0F3071201EB71
:200180000251C0F30E3201EB421101EBD060606110BD2DE9F8438046CF480838C279424500
:2001A00024D1FF21CD4ECC4FC17106201C3F70700024BC707C70FFF7D0FFC94D95F82A0093
:2001C00020B185F82A40012008F0B5F895F8290001280BD185F829403B69002B06D0032038
:2001E0008DF801006A46414630789847BDE8F8837FB5044600200090019002900390102285
:200200002146684607F01AF86A46B6491046F8F7C8DD054610226946204607F00FF8284629
:2002200099E710B5002303E030F8024B62405B1CB3EB510FF8D3104610BD2DE9FE4FDFF8BF
:200240009892A94FA9F11C09A84E99F80000032847D0002202A940F275203DF410F4BDF876
:2002600008009F4CC01E80B220F00F00ADF80800E3696268991A814200D30146307A8DB220
:20028000C00706D0CDE90025032299493846F7F7E6DBA089FCF7A6DA06464FF42273954A13
:2002A0002946002015F45CF5070023D06068A04681192A46384649F4F0F56068642128444A
:2002C00060604843E169B0FBF1F18BA007F0ACFD4FF4001090F81403800617D53E46002425
:2002E00011E03079C00705D08149002240393846F7F7B5DB0020BDE8FE8F3046FFF778FF32
:20030000641CA4B21036B4EB151FF6D3DFF8C8A12A46AAF1080A39469AF80700FFF795FD28
:20032000B9F806004C46002600B92681401CE080228929463846FFF774FF2081E188A288FD
:20034000914205D0D8F80430D8F81C20934218D10A228DF80020BDF80820491E01FB0251C3
:200360008DF80110090A8DF802108DF80400000A8DF803009AF8070005226946FFF726FD9A
:20038000E680384615F477F50120B4E72DE9F74F564F91F800804D78387A88B016460C46E1
:2003A000C00708D05249CDE900564346032258314D48F7F754DBB8F1100F38D1DFF81891BD
:2003C000DFF81C814FF0000AA9F11C09062D31D0012D7CD0092D7BD00A2D7AD0032D26D1CA
:2003E000032E24D1387AC00705D0A378012245493D48F7F734DBA07801286BD005208DF815
:200400000000012269460898FFF7E0FC88F829A0D9F81030002B0AD0A07801285BD00320AA
:200420008DF8050001AA2D480899007898470BB0BDE8F08F092EFAD1E1782079A27901EB40
:20044000002061794546090401EB02614418B8F80C0042F2937842F2927640450ED1286933
:20046000A04214D828A007F0DFFCAE8106208DF8000092208DF801002720F9E0B042D6D149
:200480006869A04203D825A007F0CEFCCFE7144901222A31032008F028FA95F82A0010B102
:2004A000002007F048FFA889FCF79CD94FF0010B8DF80CB00168CDF80D1041680646CDF8B4
:2004C00011108068CDF81500CDF819A032E074E084E0A1E0D4E0D5E0D47E2000297D2000CF
:2004E0008C7E20009C03200000301021EC7D2000040B800854B78200080808082533642504
:2005000025000000A40C8008617070206E6F206E656564206F7461210D0A00007061746340
:2005200068206E6F206E656564206F7461210D0A000000004FF4001090F81403800603D5AE
:200540000DF10D00FFF754FE112203A90898FFF73DFC0C206860B06800F58060E861397ABD
:20056000C90714D0AA89424501D1296900E069690094CDE9011002D14FF0010301E04FF066
:2005800000034FF00402F449F448F7F768DAA989414501D1F2A100E0F2A10022F3A007F02E
:2005A00043FC85F829B0D9F810305846002B3FF46DAF8DF801006A4635E7032E7FF466AF72
:2005C000387AC00705D0E44900226C31E348F7F746DA09208DF8000001224CE0072EEDD1B8
:2005E000E0782179A27900EB012081B26079002400EB022080B24FF6F072C01E1040B1FBF2
:20060000F0F1A9F80410A9F806A0FFF716FE641CE4B2082CF9D30AE7072EFCD1E0782179F8
:20062000A27900EB01206179090401EB02614518387AC0070AD0D8F80400CDE90005C6490F
:20064000A3780322A831C548F7F709DAC8F80450D8F81C10A94203D90BB0BDE8F04FECE55C
:2006600003218DF80010B8F80C008DF80100000A8DF80200032269460898FFF7A7FBD6E626
:200680000420BCE60220CBE62DE9F843BD4EB34FBD4D307A14468846C00707D028780090B9
:2006A00023780222B9493846F7F7D9D9207805281DD2DFE800F0038D2A387F00207920B115
:2006C000012815D0022812D112E0B1A007F0ACFB307AC00705D0AD49002244313846F7F7DF
:2006E000BED901214046FFF754FB012028706FE03079C00705D0A549002284313846F7F7F8
:20070000AED9ABA007F090FB62E0207900285FD1307AC0075CD09D4963790122C43138465D
:20072000F7F79DD954E0E08878B13079C00708D028780090954923790222FC313846F7F7E1
:200740008ED900203DF46EF242E0207920B3A049012802D002283BD114E02878012837D114
:2007600042F29370888106208DF8000093208DF8010027208DF80200032269464046FFF737
:2007800025FB25E02878022822D1C869496888421ED9FFF752FD1BE02878032818D10024BC
:2007A0002C70EA78A2B1784940462831FFF7EEFDEC700DE0207958B9287858B1227AEA70D5
:2007C000142A00D914227048E168283049F465F300200BE522894046E168FFF7D7FDF7E7AC
:2007E0003EB5044668484078022814D102AA694620463DF4FCF1644906221431684649F461
:2008000001F3002807D160489DF8082014308179914200D1C4713EBD5B491431C97981427F
:2008200001D1FFF760BA70472DE9F043564E044600F10A02477A7178002087B0002912D1DE
:20084000E17900290FD10CE0115C401C8B1EC0B21E2B06D243181F2B03D8155CFF2D05D052
:20086000D8B2B842F0D307B0BDE8F0831029FAD1151835F8010F5D28F5D1A8780128F2D19D
:20088000DFF80081DFF8D490514F98F80800C00712D0D7E90413D5F807000DF1040CD5F85E
:2008A0000B208CE80F00786A0090D5F80330062248494846F7F7D3D8D5F80300796A8842BB
:2008C000D1D13869D5F80710884204D87869D5F80B108842C7D91020ADF80C00ADF8100082
:2008E000ADF80E00ADF812000020ADF814001E20ADF818004FF47A75ADF81A00ADF81650BE
:2009000003A900203DF4E3F10095A2790023214601203DF431F258B198F80410C907A2D068
:200920002C490346012254314846F7F798D89AE702207070206870611349A088308314310D
:20094000A0798871A078227861788DE80700E3782279617940E00000B00B800800301021EA
:200960006170700070617463680000002573206265696E67206F74612D696E6720253364BE
:2009800025250000EC7D2000B87E2000F40C800844667520736572766963652064697363B3
:2009A0006F7665727920656E64210D0A000000004466752073657276696365206469736380
:2009C0006F76657279206661696C6564210D0A008C7E2000440E800820A007F025FA42E722
:2009E000F8B506462B4968463DF4C4F401002A4F2A484FF0FF0417D0294D9DF800302B7008
:200A0000007AC00704D0012226493846F7F727D8AFF28B312448C0E90316FFF79EFB224840
:200A20001430C4712878F8BD8DF800400078C00705D01C49002224393846F7F710D89DF842
:200A40000000F8BD017829B917491C31098909B1012100E002210170704700004466752001
:200A6000636C69656E742074727920636F6E6E656374696E6720307825303278253032786A
:200A8000253032782530327825303278253032780D0A3E003CB7820000301021EC7D2000A6
:200AA000297D2000F80E8008B87E20002DE9FF41A04CDDE90A300E4600250327246840F2E9
:200AC0000D41022A12D04FF0020C102A17D00C2A2CD000931346022297499848F6F7BFDFBF
:200AE00040F20A4504B02846BDE8F081012B2DD160B38DF8047001218DF806101DE0052B1D
:200B000024D118B38DF804708DF806C001788DF808104178827801EB0221ADF80A10C17801
:200B2000007901EB0020ADF80C0009E0012B0DD160B18DF804708DF806C000788DF8080032
:200B4000002CCFD001A93046A047CBE70D46C9E72DE9FC47794FDDE90A54764E4FF00009BD
:200B600042F292704FF0040842F2937A0A2A61D006DC042A12D0062A2AD0082A04D13DE00E
:200B80000E2A5CD0122A7DD06B49134601223C313846F6F764DF40F20A4948E065494FF47F
:200BA000007010313BF447F2624A002069461032C0F10503D35C0B54401C0628F8DB009823
:200BC0003061BDF80400B0820620226028802EE0FBF708DE58498246034601226C31384673
:200BE000F6F73DDF5449DAF860300122803138467360F6F734DF4F48001D15E05046FBF797
:200C0000F1DD4D4982460346012298313846F6F726DF4949DAF860300122AC313846F3603E
:200C2000F6F71DDF43480C302060A5F800804846BDE8FC870020B0603E480830F4E742F2B4
:200C40009070FBF7CFDD3B4E417818360346B17005213170012171704078B0704905F078A4
:200C600091F8141340F00100490961F3410020F0180040F00400F0704FF40060B0800122FA
:200C80002D4900E009E0C0313846F6F7E8DE4FF47360B0600C20266098E7FBF7A3DD2649BB
:200CA000064603460122D8313846F6F7D8DE306E204E2149243601223060EC313846736859
:200CC000F6F7CDDE5046FBF78DDD8046034601221B493846F6F7C3DED8F860007060184987
:200CE000012214313846B368F6F7B9DE082026606CE73EB504461348D0E90612CDE900123D
:200D0000A0F5007143694FF4057202A83EF4AFF420B1084804609DF808003EBD084907482B
:200D20009DF8083001222831801EF6F798DEFF203EBD0000F47E2000240F8008023310219C
:200D4000281080087CB982007CB50024DDE906650846042A0DD03E480078C00605D5134646
:200D600001223C493C48F6F77ADE40F20A4420467CBD3A490A68002AF9D002218DF8001043
:200D800069469047BDF80200308001982860EEE77CB50024DDE906030D46022A0ED02C487B
:200DA0000078C00606D52B491346012248312A48F6F755DE40F20A4420467CBD27490A681E
:200DC000002AF9D003218DF80010ADF802006946284601939047EFE71CB501240B46CDE965
:200DE00000241F49042209783EF4DCF41CBD184808B5007AC00607D500931649134602223D
:200E000090311548F6F72BDE08BD3EB504461548D0E90B12CDE90012A0F18001836AA822F8
:200E200002A83EF424F40E4928B19DF8080008700A490C603EBD06480078C00606D50B78D5
:200E400004490122DC310448F6F709DEFF203EBDEC7D200078108008003010212C7F200016
:200E60002B7D20001CBA820070B5002551F8252010E0541E264622EA0403002402E0641C13
:200E8000E4B25B08002BFAD104EB45135B1E00F8013B3240002AECD16D1CEDB2082DE5D301
:200EA00070BDF0B50346002001464FF055344FF033354FF00F364FF0FF1753F82120491C77
:200EC00002F0553C04EA5202624402F0333C05EA9202624402F00F3C06EA1212624402F034
:200EE000FF1C07EA1222624402EB12421044C9B2C0B20829E1D3F0BD2DE9F0478EB08046A7
:200F00009A4616460F461846DDF85890FFF7C9FF001D054601466823F64A002014F420F7AE
:200F200004001CD004202070677066805146201DFFF79AFF6846CDF8008008F027F8ADF83E
:200F40000A5001946846CDF8309008F094F80546204614F490F728460EB0BDE8F087102033
:200F6000FAE72DE9F0478246984615460E461846DDF82090FFF795FF001DDE4A07460146A8
:200F800085231132002014F4EBF6040013D005202070667065804146201DFFF765FF4B4657
:200FA0003A462146504600F07CF90546204614F462F72846D1E71020CFE738B5446A05464B
:200FC000002000902288A17804F12C032846FFF793FF0022686A114600EB8103DB6A03B1D1
:200FE0000122491CC9B20829F6D342B1E07801248440286A0AF09CFDB0FBF4F038BD0020F7
:2010000038BD406A2C304CE7406A416002727047406A01807047F8B50546446A480901F062
:201020001F0204EB80010126CB6806FA02F00343CB60CA6A04F12C0302430020CA620090E9
:201040002288A1782846FFF757FF2D6A686900280ED0E078864028460AF06AFD002807D0B9
:20106000B0FBF6F105F11400BDE8F84015F4E7B5F8BD426A480902EB800001F01F01C26AF6
:201080008A43C2627047416A0020024601EB8003401CC0B2DA620828F8D37047426A48096D
:2010A00002EB800001F01F01C06A01228A401040012800D000207047F8B504464068218932
:2010C00048F231030844E1680127CA1A994253D013DC48F20603A1EB0302994218D007DC9A
:2010E000A1F10401B1F500410ED0012972D10FE0292A50D02A2A6DD14DE0062A6AD2DFE8D3
:2011000002F0A06A6A1F2727608902280DD099E06189032913D181782068007E0BF00CFA99
:20112000E068A0F50041053909D120680025007E0BF0E7F901462A46204600F0E9F881E024
:20114000608902287ED120680022406AC1780FE06189032976D1216880784A6A0F2871D89F
:2011600000F00F01D170E068A0F50042353A69D1204600F0B0F865E06189042962D1216850
:2011800040884B6A1A8890425CD100200090997820460C3352E06189042953D1216840880D
:2011A0004B6A198888424DD100201946024601EB8005401CC0B2EA600828F8D3E068A0F5C9
:2011C00000412F393ED10020009033F8022B13F80A1B32E035E06189052933D12168B0F8AB
:2011E00003204D6A29888A422CD100262A7A14E06B6890F802C013F8363063450BD185F84E
:2012000002C004226B6802EBC6029B583BB182782068984703E0761CF6B2B242E8D8287AAB
:20122000B0420FD9E068A0F5004132390AD1002000902A88A97805F10C032046FFF791FEFD
:2012400000E000273846F8BD70B50C0005461ED029482060606870B9264A4FF4E6732332A7
:201260004C21002014F47CF5606238B14C2148F4D5F622486060E06858B10CE02048007802
:20128000C00704D000221F491F48F6F7E8DB002070BD1E48E060E8B22146BDE870400AF0CF
:2012A00001BEF0B58FB00446006800901D4616460F46684607F06AFE0197ADF80A60208AD7
:2012C000ADF81200208DADF8280068460C9507F0D2FE0FB0F0BD08B513468DF8021080210D
:2012E0008DF8001037218DF8011003226946FFF7D8FF08BD60BA8200FFFF0200B91081001F
:20130000EC7D20009411800800301021BB0F810008B513468DF8021080218DF80010072160
:201320008DF8011003226946FFF7BBFFE1E700000EB5ADF808308DF80710C0238DF80430F3
:201340005D238DF8053000238DF806300092062301AA00F053F90EBD2DE9F8431D461646F8
:201360000F4681464FF4BE783323B54A4146002014F4F6F404001AD0E770A580C22020700E
:201380005D2060700020A0704FF4BB71A01D48F445F64346224639464846009600F02EF982
:2013A0000546204614F467F52846BDE8F8831020FBE73EB5069C8DF808308DF80710ADF8E5
:2013C0000940C1238DF804305D238DF8053000238DF806300092072301AA00F00FF93EBDB5
:2013E0002DE9F84F1646964A1D460F4682464FF4BE795023093249460020DDF8288014F478
:20140000AFF404001CD0E7702571A4F80580C32020705D2060700020A07040F27511E01D86
:2014200048F4FCF54B46224639465046009600F0E5F80546204614F41EF52846BDE8F88FA8
:201440001020FBE72DE9FE43044640682189804E45187C49E0684FF0010842187A497B4827
:201460004FF0000989680FD0B2F5803F67D04FF4BE73B2F5003F33D0B2F5403F7ED04FF0A7
:2014800000084046BDE8FE836289062AF9D1237FEA7803F07F039A42F3D3D21A521CD7B2B5
:2014A000C90707D0618ACDE90017238A03226949F6F7D5DA366856B1A98894F82800EA78C1
:2014C0000092CDE90101618A208A01232BE0CDF80090228DE978208A3B46FFF76AFFD0E758
:2014E00062899A42CDD1237FEA7803F07F039A42C7D3D21A521CD7B2C90708D0618ACDE96C
:2015000000175449238A03224031F6F7A8DA366866B1A98894F82800EA780092CDE901011F
:20152000618A208A02233A46B047AAE7CDF80090228DE978208A3B46FFF752FFA1E762899F
:20154000072A9ED1237FEA7803F07F039A4298D3D21A521CD7B2C9070AD02979228ACDE99A
:2015600000213C490297638A04228431F6F777DA7668002E85D0B5F8050000E006E0CDE997
:2015800000702A79618A208A012323E062899A42A5D1237FEA7803F07F039A429FD3D21A8C
:2015A000521CD7B2C9070AD02979228ACDE9002128490297638A0422C831F6F750DA76685A
:2015C000002E8CD0B5F805000223CDE900702A79618A208AB04754E770B504461C4A5D20C8
:2015E00008320D461060AFF2A3105060114600200AF058FC1648C0E9004570BD2DE9F04165
:2016000006468EB01248DDF85080083000901D4614460F46684607F0B9FCADF80A509DF879
:201620001C00019467F306008DF81C00ADF81260ADF82880684607F01EFD0EB0BDE8F08100
:2016400095BA820000A33FFFEC7D200000301021307F2000F01180082DE9F0478EB00746BE
:20166000DDF858A099460AF1070085B290460E463223574A2946002014F472F304002FD066
:2016800054480068C4F80300C82020705D2060700020A070B9F1000004D001465246E01D38
:2016A00048F4FBF34B4828380090684607F06EFCADF80A509DF81C00019466F306008DF845
:2016C0001C00ADF81270ADF82880684607F0D3FC0546204614F4CFF328460EB0BDE8F08743
:2016E0001020FAE738B53B4C98B193B10025C4E900532081A172A28115F449F0206140F2E7
:2017000075100090A289A17A20890023FFF7A4FF38BD20686060002038BD10B52E4AC16851
:201720000124D1420CD1418907290AD3294928390B6933B10246274800212838984700E09B
:201740000024204610BD38B5224C2068401C01291DD002291BD0042919D022890323B3EB41
:20176000923F01D1062912D01CA006F05DFB606800280BD0216881420BD240F27510009070
:20178000A289A17A20890023FFF766FF38BD2060EDE714F4FCF760612169164A411A20680A
:2017A0005043B0FBF1F214A006F03EFB0020606038BD08491A4A28390A60AFF2A1024A60E2
:2017C000AFF27D028A60086100200AF06BBB0000A7BA8200887F200000A337FF74702074FB
:2017E00078206661696C20726561736F6E3D25640D0A000060CC0500747020747820656C1E
:2018000061707365642074696D653D25646D732074703D2564627974652F730D0A0000000F
:201820005D00030030B50322151F284691B000230146F6F706DD2846002302220146F6F738
:2018400000DD2846002301220146F6F7FADC002328461A460146F6F7F4DC002211463F2020
:20186000F6F7CCDC002211463D20F6F7C7DC012211463020F6F7C2DC00240FA903200F9476
:2018800005F0DCFD01F01AFA2846F5F792DF05F016FD6DA1ADF840402822002006F095FF7B
:2018A000022210A9012006F090FF6AA06D4C0FC88DE80F0004F10C000AAB07C883E8070090
:2018C0000B220AA9002009F0E0F804226649022009F0DBF8182204F1180104A8256848F4B7
:2018E00063F304A928460AF0AEFE6048062100F87C1F012141700521C17081710721817337
:20190000002009F0D1FF5A490020FFF79DFC5D215748FFF77DFB002003F042FFD4E90101EE
:20192000CDE90D010DA80AF036FB03F0F9FD1021684602F0AEFE684609F0F4F908F080FB96
:201940004C4808F033FC4C480FF063F911B030BD00B589B0032001218DF81C0000208DF8B6
:201960001410ADF818108DF800008DF8040002908DF80C00ADF8101005AA40F202203AF44F
:2019800014F306AA022140F203203AF40EF307AA01214FF401703AF408F36A46012140F235
:2019A00005203AF402F302AA042140F211203AF41EF401AA012140F212203AF418F403AA53
:2019C000012140F213203AF412F404AA02214FF405703AF40CF429483BF433F109B000BD5B
:2019E00010B505203DF48EF50020FFF782F92448FEF736F92248FFF708FA21483DF49BF59C
:201A000002203CF49DF4BDE810401E483CF4AFB470477047704700F0DDB81B4810B50068BB
:201A200018F02EFF01203BF4C9F004F000FFFFF78FFFFFF7D5FFFFF7F5FE00F0CBF814F483
:201A4000C0F6002010BD00004D6573682044657669636500000102030405060708090A0BA4
:201A60000C0D0E0FB0BA8200FD23810090822000A07F20009F23810039278100512181001B
:201A80000B2381009D228100587E20007CB502228DF804204322574C00920146544B0022C1
:201AA000A06814F49FF2544D50B148200090504B002201A9606814F495F220B101207CBD02
:201AC00000224E4902E04D4900221C312846F5F7C6DF00207CBD1FB502218DF80C10032152
:201AE000ADF80410ADF80600424C5720404B00901833002201A9A06814F474F2002808D0D5
:201B00005A203B4B00901833002203A9606814F469F21FBDAFF241021921182006F014B9FC
:201B20001FB577200090324B32482A3308222021083014F4DFF1782000902D4B2D482A3369
:201B400001225021001D14F4D5F12A4C2022D4E901013AF48AF1D4E901230221802008F04A
:201B6000A1FAFFF7D7FF26A005F00EFE8626274D4FF081084FF0FF3900271D4BCDF8008004
:201B80002A334A4603A9606814F45CF238B19DF80C0002280CD0802819D03AF4D3F103F088
:201BA000A6FA28780128E8D103F072FC2F70E4E70F4B00962A33002201A9A06814F442F2DB
:201BC0000028ECD0DDE9010100F0F2F9E7E708F094F9E4E71CB501214FF420600023AFF2E6
:201BE000BF02CDE900010AA1024814F4F1F61CBDDEBA8200C87F2000003010216C138008C7
:201C00004D65736844657669636500005480200061707000F8B5FA4E15460C460346009235
:201C20000222F6493046F5F71ADF54B1012C0CD0012201B02346B01EBDE8F040F149F5F7D2
:201C40000E9FEE490022383107E05DB12946EEA006F0EAF8EB49002248393046BDE8F84021
:201C6000F5F7FD9EEFA006F0DFF8E44900227431F3E730B5E24C87B0054661B101292DD0E5
:201C8000022929D1034607B02046BDE830400122E849F5F7E49E024605A940F272203BF4F9
:201CA000EEF62A4604A940F273203BF4E8F62A4603A94FF41D703BF4E2F6BDF81400BDF8E0
:201CC0000C20BDF810108DE80700CE492B46042270312046F5F7C3DE07B030BD0346D5493A
:201CE000C748009202224C39801EF5F7B8DEF3E708B503460091C34902223431C048F5F780
:201D0000AEDE08BD2DE9F04188B014460D46070047D1C94EDFF8E8823B463078CDE90005EB
:201D20000422C64902944046F5F799DE3570DDB3012D36D0022D34D13A4606A940F272205F
:201D40003BF49DF63A4605A940F273203BF497F63A4604A94FF41D703BF491F6721CB11C04
:201D600038463BF444F7B11CB548F6F735D803467078BDF81040BDF81420BDF818108DE846
:201D800017009E49052284394046F5F768DE3946ACA006F049F840F64802FB2138463BF45E
:201DA000F0F008B0BDE8F081FFE7A4F5807013380BD0B4F58B7F08D0A04991483B460222EE
:201DC0005031801E0094F5F74ADE3946A5A006F02BF800203060706008B0BDE8F041FDF75D
:201DE00017BFF0B585B0C4B2C4F30110C4F38102CDE9002002919149814F04F001052B463D
:201E000004226C393846F5F72ADE8B4EB61E307800F00100A8421DD0E0071BD087490022A4
:201E200014393846F5F71BDE03A94FF400703AF402F19DF80E009DF80C209DF80D108DE8E7
:201E400007009DF80F309DF810209DF811108BA005F0EAFF347005B0F0BD70B505464388E2
:201E600044687449664886B001224031401CF5F7F6DD0120ADF810006888ADF81200686819
:201E8000059004A806F05DFB6B8800205C4D0B2B6BD2DFE803F085060C18131F315D6F48A4
:201EA00026002046210CFFF79CFF06B070BD220CC4F30721E0B2FFF725FFF6E7210CE0B2A0
:201EC000FFF716FFF1E7220CC4F30721E0B2FFF7D0FEEAE7220CC4F30721E0B2FFF79AFEBE
:201EE000E3E7E0B2012104F04EFE5249002260312846F5F7B4DDD8E7E4B2019001A92046F5
:201F00003AF473F201984B4900902346022280312846F5F7A4DD012120463AF4ABF221469E
:201F200060A0019A11E0E4B2019001A920463AF45CF201983F49009023460222BC312846C9
:201F4000F5F78DDD214666A0019A05F06DFFACE7C4F307203749E6B2009033460222FC31DF
:201F60002846F5F77CDD314600E019E06BA005F05BFF9AE7009001900290E4B2039023463E
:201F8000012271492846F5F76ADD6A4610214FF404703AF42CF1012120463AF40CF284E7C1
:201FA0006949174801222C31801EF5F758DD7CE703B581B0BDF8040064281BD00CDC90B12C
:201FC000032808D1BDF806008DF800005F4A0121684605F05EFA0EBD652808D06E28FAD166
:201FE000FDF7FAF80EBD01A8FFF737FF0EBD01F0CDF90EBD00F09AFD0EBD00002C158008F3
:20200000023010213016800850616972206661696C65643A20636175736520307825780DA1
:202020000A0000005061697220737563636573730D0A000078178008D67F200010148008A2
:2020400000003021436F6E6E6563746564207375636365737320636F6E6E5F6964202564E0
:202060000D0A0000446973636F6E6E65637420636F6E6E5F69642025640D0A00627420612E
:202080006464723A2030782530327825303278253032782530327825303278253032780DFD
:2020A0000A3E00004741505F4D53475F4C455F424F4E445F504153534B45595F444953503A
:2020C0004C41593A20636F6E6E5F69642025642C20706173736B65792025640D0A00000031
:2020E0004741505F4D53475F4C455F424F4E445F555345525F434F4E4649524D4154494F18
:202100004E3A20636F6E6E5F69642025642C20706173736B65792025640D0A004741505F51
:202120004D53475F4C455F424F4E445F504153534B45595F494E5055543A20636F6E6E5F71
:2021400069642025640D0A00B018800838BB82002DE9FF410026F74D0C4615285ED00CDCC8
:2021600010281CD004DC012836D0032811D165E0122877D014280CD11BE0302837D004DC06
:20218000182870D0202804D120E040285FD0A3286BD00346E7480122E749801E54E00868F8
:2021A00090F901204188CDE9001203780322E34908E0086882884188CDE90012DF49037882
:2021C000032238312846F5F74ADC58E00868DB49012203788C3136E00868022241880091C6
:2021E000D6490378B8312846F5F739DC47E0D4482168F5F7F1DD01462068477A90F9083016
:2022000082798DE88E00CD49C3790522F4312846F5F725DC206806F023FA30E008688188A3
:202220000489C38842888DE81E0003780522C5492846F5F714DC40F6035620E00868C14966
:202240000122038888312846F5F709DC17E00868BC4901220388BC312846F5F700DC06F0A5
:20226000ADFB0CE00EE013E0FFE70B88B249012294392846F5F7F3DB002006F0A4FB304632
:2022800004B08FE50868AC49012203886439DAE70868A949012203883439D4E72DE9FC411A
:2022A000A44E0091A449144607460346002502222C313046F5F7D3DBFF2F23D1207810B18D
:2022C00001281FD10DE020794FF00002022805D099498C313046F5F7C2DB13E0964960311E
:2022E000F8E7207910B100229749F3E7A06842880188CDE900129449838803225439304696
:20230000F5F7ADDB2846BDE8FC817FB50025FF280AD08E4A127890423ED108781022022840
:202320002DD0032838D12EE00C460978814E11B1012931D107E08449A37801223431304601
:20234000F5F78DDB28E020896388E28861798DE80F007D492379052260313046F5F77FDBEF
:2023600020894FF0000230B177497248F431801EF5F775DB10E074493046C831F8E74A8054
:202380007348486008E04888102800D94A804A8849686F4847F481F504B0284670BD30B528
:2023A0001C466C4B85B01B78002B25D005784378CDE90312CDE9013581780091C3780279ED
:2023C000417965A005F030FD207868B101280DD0022811D16DA005F027FD6188606805B0CD
:2023E000BDE8304005F02EBD6AA000E06BA005F01BFD10216068F2E705B030BD70B54D4DB3
:202400000C460646034698B0012266492846F5F726DBE1B20A2E63D2DFE806F00513186211
:202420001F3762656C7121B1012904D0022957D103E05DA002E062A000E068A005F0F4FCEE
:202440004EE06CA005F0F0FC032003E06EA005F0EBFC002002F08FFC42E040226FA1684692
:2024600047F4A2F520227DA110A847F49DF540226946032008F009FB202210A9042008F05E
:2024800004FB48490022183116E0204608F026FC7A49487000902379E278A17878A005F0A4
:2024A000C3FCA078012804D0022809D0032817D10DE03C49002254312846F5F7D0DA0FE026
:2024C000E0783849009002222379943105E0E0780090344923790222F0312846F5F7BFDAF0
:2024E00018B0012070BDB4F8171073A005F09CFC0220AFE779A005F097FC0120AAE77E4882
:20250000B0F856107DA005F08FFC0420A2E77FB57F480C462BC88DE82B005DF824001146B3
:2025200005F082FC022C01D0032C02D1002001F00FFA7FBD02301021D81B8008081980084A
:20254000000030215C1A8008EC1C80082B7D20002C7D200018802000627420616464723D85
:20256000307825303278253032782530327825303278253032782530327820747970653D9A
:20258000256420727373693D2564200070726F78793D00007564623D0000000070726F762D
:2025A0003D0000000C1E800850422D414456204C696E6B204F70656E6564210D0A3E0000F3
:2025C00050422D414456204C696E6B204F70656E204661696C6564210D0A3E0050422D4126
:2025E0004456204C696E6B20436C6F736564210D0A3E0000756E70726F76206465766963CE
:2026000065210D0A3E0000006265696E672070726F762D6564210D0A00000000F465E43F49
:20262000F23D3F1B9DC7DFC04DA8758184DBC966204796ECCF0D6CF5E16500CC0201D04842
:20264000BCBBD899EEEFC424164E33C201C2B010CA6B4D43A8A155CAD8ECB279529AA067E2
:202660000D72CD6497502ED473502B037E8803B5C60829A5A3CAA219505530BAD47F20004C
:2026800061757468206D6574686F643D25645B6E736F695D20616374696F6E3D25642073B9
:2026A000697A653D256420747970653D25645B6E624E615D0D0A3E006265656E2070726FCD
:2026C000762D65642077697468206164647220307825303478210D0A0000000070726F762F
:2026E0006973696F6E206661696C2C20747970653D2564210D0A0000908220006D7320615D
:202700006464723A203078253034780D0A3E000018BB82007FB523480C462BC88DE82B004E
:202720005DF82400114605F07FFB0CB1032C02D1002001F00DF97FBD7FB5052831D2DFE81D
:2027400000F0030A15181F00087808B116A005E049881DA00FE0087828B127A004B0BDE866
:20276000704005F061BB49882CA004E0098838A001E0098840A004B0BDE8704005F054BB4F
:20278000C8784D79C0F3C004C0F38003C0F340028DE83C0000F001038A780988414805F0DB
:2027A00043FB7FBD28BB8200686561727462656174207075626C6973682074696D65722012
:2027C00073746F700D0A0000686561727462656174207075626C6973682074696D657220F4
:2027E00073746172742C20706572696F64203D2025640D0A00000000686561727462656183
:202800007420737562736372697074696F6E2074696D65722073746F700D0A006865617221
:20282000746265617420737562736372697074696F6E2074696D65722073746172742C2068
:20284000706572696F64203D2025640D0A000000686561727462656174207075626C697379
:202860006820636F756E74207570646174653A2025640D0A000000006865617274626561CE
:202880007420737562736372697074696F6E20706572696F64207570646174653A20256456
:2028A0000D0A000054C8820010B5806820B1012805D0022808D105E00AF006F804E009F02A
:2028C0008FFF01E00AF006F8002010BD0EB50121ADF80110816801B101218DF80310C1688B
:2028E00001B101218DF80410017C8DF80510828AADF80620027E8DF80820808BADF8090097
:20290000082901D8082A01D906200EBD0B226946002008F0BAF800200EBD10B5007A2F4968
:202920000DF03EFB80F0010010BD3EB52C4A037A818934CA8DE83400026989B202B10092A1
:20294000426902B101928269264CA2F10A05F52D01D884F899200279062A04D3C069FF2885
:2029600001D884F89A006A4618460DF019FA002800D001203EBD38B5047A8189ADF800100C
:20298000006908B1012300E000230122694620460CF0E8FC002038BD10B5007A0DF0DEFAAD
:2029A000002010BD30B50179057A491ECAB285B0142A00D9142200216C4605E000EB8103C0
:2029C0001B7B6354491CC9B29142F7D321462846FEF702FA05B0002030BD000015278100E8
:2029E00078BE8200908220002DE9F0438FB014460D46804609F0A5F8002647F6FF77A1469C
:202A00002E23364A2946304613F4AAF1040021D02A46494647F441F26846CDF8008006F013
:202A2000B5FAADF80A509DF81C00019420F07F00C01C8DF81C00ADF81270ADF82860684694
:202A400006F019FB0546204613F415F228460FB0BDE8F0831020FAE77FB5028941680124CA
:202A60008D188189036889B2B1F5144F03D0002404B0204670BD4289002100910191029118
:202A80000391C068D21E0090ADF8042018690028EED0ED1C02951D696A461846A847E7E7D9
:202AA00070B50C00054604D00D482060606810B10EE0002070BD0B486060206940B90A4846
:202AC0000079C00704D0002208490948F4F7C7DF21462846BDE8704009F0E4B984BE820009
:202AE00094002053592A8100EC7D20005C1F8008003010211FB502208DF80C006420ADF82E
:202B00000400232000904748454B002201A9006813F468F2002808D0262000904248404B3F
:202B2000002203A9006813F45DF21FBD38B53F4814F4A9F03D4C0020083CA0603C48007A2D
:202B4000C00705D0E38801223A493B48F4F787DFE07860B1012813D0022807D1E088009085
:202B6000A37862782178A088FEF73AFC38BDE0880090A37862782178A0880DF054FF38BD8C
:202B8000E0880090A37862782178A088FEF711FC38BD2DE9FC41DDE908160A9D1DB1234C75
:202BA000083CA768C7B1002453B1012B0ED0022B04D1134632460094FEF712FCBDE8FC818C
:202BC0001346324600940DF02EFFF7E7134632460094FEF7EEFBF1E7A08021706670A270D4
:202BE000E370022101A804F075FBBDF804000121684301EB204080B2ADF80400E0800F49ED
:202C000000EB80000091410000231A460CA004F0BAFAA0600028D1D0044813F4FFF7CDE7DA
:202C200098BE8200D07F2000CC7F2000E87F2000EC7D2000A41F800800301021F52A810086
:202C4000706F6E670000000010B5144692880EA0216805F0E9F8174920680B68C0F3074025
:202C600013B12179A2689847002010BD10B511490446091D104808610020FFF711FF002C7E
:202C800001D00C48046010BD76656E646F725F6D6F64656C5F7365727665725F64617461F1
:202CA000206F70636F646520253038582C202564200A0000EC7F2000492C810008B507A091
:202CC0000090002306A208A14FF00450F4F770DEBDE80840002102A007F0BDBA0000000006
:202CE000302E302E302E30004D6573682053444B205665723A2025732C20474349443A20FF
:202D0000307825782C204275696C642054696D653A2025730000000010B5D0210320FBF7C6
:202D2000BAFD002010BD2DE9F047FD4E86B0FDA096F8451005F078F8FEA005F075F810210B
:202D400006F1350005F07EF803A94FF4007039F472F19DF80E009DF80C209DF80D108DE862
:202D600007009DF80F309DF810209DF81110F4A005F05AF800244FF002094FF0040A1BE06C
:202D800004EB84050321306901EB8501415C89B109EB8501435C6BB100EB8500214602881F
:202DA000F1A005F041F831690AEB85000844102105F048F8641CA4B2B08AA042E0D80024C0
:202DC0004FF008082EE0B06800EB0410007838B308F06FF9B16809EB04128A5ACDE90002FD
:202DE00001EB041003780AEB04100A5A2146E4A005F01AF80025B06808EB850700EB04113D
:202E0000C85948B1E6A005F00FF8B068102100EB0410C05905F016F86D1CEDB2022DEAD39E
:202E2000641CA4B2B089A042CDD80025B04638E0306805EB450410F8240080B308F06EF93A
:202E40000746306810F8240008F033F9CDE90007306809EB8407294610F82430C25BD1A010
:202E600004F0E2FF3068C05B00041FD40027B0460AEB8706D8F8000000EB8401885950B112
:202E8000C7A004F0D1FFD8F80000102100EB8400805904F0D7FF7F1CFFB2022FE8D36D1C33
:202EA000ADB2B8F804004646A842C1D898F8BC00444600F00101C3A0D8F8282004F0B4FF06
:202EC000C5A0216A04F0B0FF94F86430B4F85610C5A0226E04F0A8FFA76D60E03979C9A02E
:202EE0003A6904F0A1FFBC6856E06068227A417E0368C9A004F098FF0126002515E029460F
:202F0000E06904F0FDF970B1D8F8080000EB0510007840B11EB100262946C5A001E0294603
:202F2000C6A004F081FF6D1CADB2B8F80C00A842E5D816B9C2A004F077FF618931B1A089DC
:202F4000A27BC0F30B03BFA004F06EFF264600E0066A706840690028FAD1356AC5B1306AF4
:202F6000A84222D1A64209D06068AB88327A4069006A017AB8A004F057FF03E0A988BBA06D
:202F800004F052FF2D68002DE9D1ADA004F04CFF246890A004F048FF002CA6D13F68002F74
:202FA0009CD106B00020BDE8F087A988ADA0E7E7806800B10120B14908700020704710B59E
:202FC000816D574810223530044604F0D5F959A004F02AFF1021204604F034FF002010BD00
:202FE00010B50446806800B1012006F036FFA06808B1A3A100E0A3A1A3A004F015FF002049
:2030000010BD7FB50546A5480178A86D032909D001461022684604F0AFF9C4B2ADEB04050A
:20302000103503E046F41AF7AD6DC4B221469CA004F0FAFE2146284604F004FF214628465D
:203040000DF00FFB04B080F0010070BD1FB5816D1022684604F090F9684607F008FF044602
:2030600007F0E3FE020006D0214694A004F0DCFE002004B010BD0120FBE77CB51189506810
:203080001446451813F483F3CDE90001D5F80330628A218A8FA004F0C7FE6189B1F5BE7FF9
:2030A00006D2E81DC91F04F027FD95A004F0BCFE00207CBD2DE9F043704E85B08146DDE92E
:2030C0000C75B0889046401CB0808E48D0F87C01282120F07C40B0FBF1F413F458F302467B
:2030E000D6E90310234604F084F8040005D520F000404FF47A71B0FBF1F4B069012802D124
:2031000081A004F091FE684200EB800004EB400105EB8500B4EB400F00D9F7E0F8E00000DB
:20312000908220004D65736853746174653A0925640D0A00446576555549443A0900000053
:203140004254416464723A090930782530327825303278253032782530327825303278254A
:203160003032780D0A0000004465764B65793A090925642D3078253034782D25642D000088
:203180004170704B65793A090925642D3078253034782D25642D25642D25640D0A00000001
:2031A000090900004E65744B65793A090925642D3078253034782D25642D25642D25640DD3
:2031C0000A0000004956696E6465783A0925642D307825780D0A00005365713A09093078BC
:2031E000253036780D0A00004E6F6465416464723A093078253034782D25642D25640D0A45
:2032000000000000456C656D656E743A0925642D25640D0A000000004D6F64656C3A09090E
:2032200025642D25642D307825303878000000002D286B65793A2564000000002D2564005E
:20324000290000002D287075623A3078253034782D25642D256429002D287375623A2D2506
:20326000642D25642D307825303478002D287375623A307825303478000000001880200024
:203280006F6E00006F666600416476206265617265723A2025730D0A00000000D57F2000ED
:2032A0004175746856616C75653A206C656E3D25642C2076616C75653D000000696E6465DA
:2032C000783D25642076613D3078253034780D0A0000000046726F6D3A3078253034782025
:2032E000546F3A307825303478205469643A25642054696D653A25646D730D0A00000000BB
:203300000D0A3E000080054008000000002000E01E20084471690A187261F16A884200D934
:20332000F062B16A884200D2B062B18805EB8503B2FBF1F25B00CDE90230CDE9007404922E
:2033400043464A46FAA004F06FFD05B0BDE8F0831FB502208DF80C006520ADF8040040F2A6
:203360002F100090FB48FA4B002201A9006812F439F6002809D04FF499700090F648F44B33
:20338000002203A9006812F42DF61FBD70B5F34CA169491CA161A288E0691044E06162694A
:2033A000206A10442062EEA004F03EFDF948D0F87C01282120F07C40B0FBF1F0E06013F482
:2033C000E6F120610020A0806061E14861780C38638950F821502289A178E088AC46BDE8E6
:2033E000704060477CB5DD4D04460089E880207BA870208A2881A08A2A4681B26981208B78
:20340000526A0004000C4FF000061CD02379D3B1884200D20846002A32D000EB80004100CD
:20342000CE48243013F40BF4AE61AE80EE616E614FF0FF302E62C5E90A06FFF7A7FF002841
:2034400000D001207CBD22B1C448243013F41BF46E6220790028E7D1A988E8694218EA6189
:203460006969286A08442862B0FBF2F0E96ACDE90010C9A0AB6AA96904F0D6FC00207CBDBD
:20348000D54900EB80000091410000230122D3A003F079FE68620028C6D0B048243013F4D3
:2034A000BDF3C1E7AD4A002151709BE7AB4A0121517097E7A94A0221517093E7F8B50446BB
:2034C0000089267B87B2208A85B2606E46F4C6F480B200902A4631463846636EFEF7BCF845
:2034E000002800D00120F8BD10B50189028A8CB2017B436992B22046FEF7F4F8002800D03A
:20350000012010BD30B587B00446816D062205A803F032FF062105A803F07CFEE06808B12E
:20352000012400E000241020ADF80400ADF80800ADF80600ADF80A000020ADF80C001E2073
:20354000ADF810004FF47A75ADF81200ADF80E5001A900203AF4BBF30023224605A90120CA
:2035600000953AF409F49FA004F05EFC062105A803F050FE062105A804F064FC07B00020EA
:2035800030BD10B504469AA004F04EFC207A3AF449F3002010BD10B5044699A004F044FC4A
:2035A000207AFCF7A0FB002010BD70B505469AA004F03AFC002005F05FFC9F4C9C4A9D49FB
:2035C000207809F0E0FF0121207809F0ECFF9B49287A087005F059FA002070BD70B5057AA6
:2035E000C06808B1012400E0002495A004F01CFC0DB1042070BD2146904C207805F09AFA0D
:203600008D482178007809F0DCFF93A004F00CFC06F01DFC10B195A004F006FC002070BD79
:2036200070B5A2A004F000FC844D00242146287805F027FA02462146A6A004F0F5FB641CC8
:20364000E4B2062CF2D3002070BD10B5047A7A482146007809F042FD2146A1A004F0E4FBF9
:20366000002010BD08B50089ADF80000724801236A461946007809F03EFDBDF80010A0A0D4
:2036800004F0D2FB002008BD08B50089ADF80000694801236A460021007809F02CFDBDF8A4
:2036A00000109EA004F0C0FB002008BDF8B50446007A002100F001023F20F4F79FDD207A43
:2036C000012100F001023F20F4F798DD207A022100F001023F20F4F791DD207A032100F000
:2036E00001023F20F4F78ADD0322207A151FC0F340036E0828463146F4F7A3DD207A0222A9
:20370000C0F3400328463146F4F79BDD207A042140070012020E684646F478F4694603201D
:2037200003F08CFE85A0A16804F07EFB0020F8BD2564093078253034780925640925640934
:2037400025640925640925640925640D0A000000B8BE8200D07F2000CC7F20001880200089
:20376000636F756E740964737409662D686F707309722D686F70730974696D650964656C1E
:203780006179097274696D65096174696D650925640D0A000080054070696E672073746188
:2037A0007469737469633A2070696E673D256420706F6E673D25642074696D65286D732911
:2037C000206D696E3D2564206D61783D2564206176673D25640D0A005133810070696E67A5
:2037E00000000000436F6E6E656374696E672000446973636F6E6E656374696E670D0A0042
:2038000044667520537461727420446973636F7665720D0A0000000050726F7879205374DC
:2038200061727420446973636F7665720D0A00000D8F81006F8B81001F7E2000FD812000D8
:2038400050726F78792043636364204F7065726174650D0A0000000047415454206265613A
:203860007265723A206F6E0D0A0000000D0A54686520616476206265617265722065786927
:20388000747320746F6F2C20796F752063616E2075736520226261732220636D6420746F76
:2038A00020636C6F73652069740D0A0050726F7879205365727665722048616E646C652079
:2038C0004C6973743A0D0A6964780968616E646C650D0A00256409307825780D0A0000003C
:2038E00050726F787920636667207365742066696C74657220747970652025640D0A0000A2
:2039000050726F787920636667206164642061646472203078253034780D0A0050726F78A8
:2039200079206366672072656D6F76652061646472203078253034780D0A00004C6F672033
:2039400073657474696E67202564210D0A00000038B512F41CF74FF47A71B0FBF1F03C226A
:20396000B0FBF2F3B0FBF2F102FB1304B1FBF2F3B1FBF2F002FB13131822B0FBF2F1B0FB60
:20398000F2F502FB150236A0009404F04DFA002038BD1CB5044638A00068009037A0006848
:2039A0000190A0681DF8001000203EF412F401A9A068095632A004F037FA00201CBD08B533
:2039C000037A017B8DF800100069411EFE2902D2304981F89800304A694618460BF0C0FAD0
:2039E00080F0010008BD0EB50189ADF800108189ADF80210008AADF804007F208DF8060071
:203A0000BDF807000020ADF80700ADF80A009DE807000DF0B6FA00200DF097F900200EBD9E
:203A200010B5048964F30F038489008A64F31F4360F30F0100207F2464F3070260F31F4142
:203A400060F30F2218460DF0A9FA01200DF07DF9002010BD10B506F002FB002010BD0000BE
:203A600054696D653A2025646425646825646D2564730D0A000000003080A0F0EC0004083E
:203A800041647620706F7765722025642064426D0D0A0000908220000F25810010B5806837
:203AA00008B1012100E00021FA4880F84510FAA004F0BAF9002010BD10B50179012901D0B3
:203AC000052010BD0089C0F30E01F248A0F85610F6A004F0A9F9002010BD7FB50189102268
:203AE0008CB281898DB2016E684603F045FC6A462946204607F053FBF1A004F095F9E54DDF
:203B000004EB4404286810F8240007F0D2FA042101EB8000296801EB84010858102104F0D7
:203B200091F9002004B070BD2DE9F0410089D94E84B204EB4405306810F8250007F0EEFAF1
:203B40000746204607F0CFFB306810F8250007F0E5FA03463A462146DCA004F065F9002038
:203B6000BDE8F0817FB5018910228CB281898EB2018A8DB2416E684603F0FEFB6B462A4683
:203B80003146204607F04DFDD7A004F04DF9C14DA86800EB0410007807F08BFA082101EB30
:203BA0008000A96801EB04110858102104F04AF90020B7E77FB5047A067B057C416E102258
:203BC000684603F0D9FB6B462A463146204607F0B3F9B04E04EB84050221306901EB85012B
:203BE000435C00EB850021460288C2A004F01CF90421306901EB85010844102104F022F99E
:203C000000208FE710B5806808F0CCFAA148016ABEA004F009F9002010BD10B5806808F069
:203C200072FB9C48816ABDA004F0FEF8002010BD70B5984C054694F8BC00A26A00F001017A
:203C4000BAA004F0F1F8A86810B108F0C9FB01E008F002FC94F8BC00A26A00F00101B3A030
:203C600004F0E2F8002070BD10B50446806800B1012008F0F6FBA06808B1B1A100E0B2A131
:203C8000B3A004F0D1F8002010BD10B505F002FBB4A004F0C9F8002010BD10B508F084FF3A
:203CA00008F082FF002010BD10B5027A017B008A84B2104607F059FE28B1A4F57F41FF3913
:203CC00001D0210401D4042010BD214607F0B9FF002010BD2DE9F0410446008994B01FFAAE
:203CE00080F8277B257C00200EAE02E03054401CC0B2A84201D21428F8D3002000906846D7
:203D000005F044F90196ADF80A506069FF289DF81D0002D040F0400001E020F040008DF841
:203D20001D00A08AADF828009DF81C00ADF8128067F306008DF81C00684605F09CF9002826
:203D400000D0012014B00BE770B5047A8DA09CB0D0E90010CDE919108CA00EAD0FC885E8CD
:203D60000F008EA012AD0FC885E80F008FA0002507C816AB009583E807008F488F4EADF8B0
:203D80000850032C20D0042C1ED0052C20D0062C27D019A801900620ADF80A00022008F003
:203DA000B2FA874808F0FEF9684605F0EFF8012C1BD0022C2FD0032C41D0042C3FD0052C1A
:203DC00043D0062C41D016E00EA901910D2102E012A901911021ADF80A1008F094FA304605
:203DE000E0E716A901910A21F5E79DF81D0020F040008DF81D009DF81C0020F07F00C01DE3
:203E00008DF81C00032C26D0042C24D0052C22D0062C20D006E09DF81C0020F07F00801DB0
:203E20008DF81C0040F20540ADF8100040F20760ADF81200ADF82850062C18D023E09DF896
:203E40001C0020F07F001A30DAE79DF81C0020F07F001230D4E740F60C30ADF8100040F612
:203E60000E50ADF812000120ADF82800E4E79DF81E0040F080008DF81E009DF81C0040F08D
:203E800080008DF81C00684605F0F5F81CB0002070BD0000908220004E6F64652053746158
:203EA00074653A0925640D0A000000004E6F6465416464723A093078253034780D0A000042
:203EC0004E65744B65793A09090000004E65744B65792025643A2070686173652025642019
:203EE0002D3E2025640D0A004170704B65793A09090000004465764B65793A090925642DB7
:203F00003078253034782D25642D00005365713A09093078253036780D0A00004956696E68
:203F20006465783A09307825780D0A004956696E6465783A0925642D307825780D0A000095
:203F400054657374000000004E6F726D616C00004956696E646578206D6F64653A202573EA
:203F60000D0A00004E6574204D73672043616368652061726520636C65617265642E0D0A3B
:203F80000000000001020000000000008011010203040506070000000000000080110102DD
:203FA000030405060708090A00000000010200000000000000000000040302010A090800A5
:203FC00003020100F8B50546047A18A003F02CFF012C0AD01A4E1B4B1B4A1C48022C08D0EB
:203FE000032C0CD0042C14D01EE01949012008701AE0316800911B681268016811E0A889FD
:2040000081B21448C82901800ED213A003F00CFF0AE0002101601160196031600B460A4686
:20402000009111A003F000FF0020F8BD757365725F636D645F736B79746573743A0D0A005E
:2040400074802000708020006C8020006880200054802000628020005445535450455249C2
:20406000443A256420730A0054455354524553554C54206D616B653A25642073656E643AF8
:2040800025642061636B3A25642074696D6F75743A25640A0000000010B5032801D3002012
:2040A00010BD1A4900EBC00001EB800408221849206845F4A7F698B1A2696168E06845F42E
:2040C000ECF6E269A168206945F4E7F6216A606945F4A4F720680E4902680A6040684860E0
:2040E000012010BD70B5094D002404EBC400082255F82000064945F485F620B1641C032C66
:20410000F3DB032070BDE0B270BD00003C7D20004880200010B5FF4C0022FD492046F3F739
:204120009EDCFD494FF4000016F077FC002808D0F948F7490122037830312046F3F78FDCC8
:20414000012010BDF4480078FF2801D016F052BC704738B5054601460220F7F764DF0446DE
:204160000090EB49EB482B4602227031401EF3F776DC204638BD70B50D460024F8F780DB37
:2041800060B12844FFF7E5FFE149E248234601229C31401EF3F763DC204670BD5324F3E7B0
:2041A0002DE9FC470D461646DFF86893D849CDE9005604460346A9F1010900270322C43180
:2041C0004846F3F74CDCA4F57F40FE3814D012F43FF3804632462946204633F4F6F2074626
:2041E000404612F442F33B460122CC494846F3F736DC3846BDE8FC8700240520F7F7A0DE60
:20420000054413E06A4604212846F8F776D90098401C09D0C149BF48234601222C39C01E34
:20422000F3F71DDC6E27DEE7641C2D1DB4EB960FE8D3D8E72DE9F8430E460024A0F57F419B
:2042400091468046FE391BD0F8F71ADBE0B187193846FFF77EFF4A4631464046FFF7A0FF77
:20426000050002D0641C032CF2D3AC49234602222831A8480095F3F7F2DB2846BDE8F8834E
:204280000520F7F75DDEE1E79A25EEE72DE9F05F04460025F8F7D5DA90F0010F42F2917736
:2042A00042F2927842F2937942F2947A42F2957B0ED0BC4207D0444505D04C4503D05445EC
:2042C00001D05C452ED10420F7F776DE054629E00220F7F735DE0646ECF778DFB04203D144
:2042E0000320F7F72DDE064642F290718C4202D14FF4805516E0BC4207D0444505D04C45AE
:2043000003D0544501D05C450CD13046F8F74CDA40B106EBC400A0F5A030D0F81455681C97
:2043200000D100252846BDE8F09F2DE9FC410E46089C4FF000011D00174621600FD0A0F5EB
:204340007F41FE3907D0FFF7A1FFDFF8C8C1ACF1030C3EB115E00520F7F72EDEF5E740F2DC
:20436000AF101CE0AB6803F58063834209D96B490090022254316046F3F771DB4FF4E3708E
:204380000DE0F11981420ED9CDE9007063493346032294316046F3F762DB40F2CF102060E9
:2043A0000020BDE8FC810120FBE72DE9FF5F8246009116460020CDE901600D4657495548C8
:2043C0001C4653460322E831401EF3F748DBB00702D040F237205BE03CB14FF6FE7B5046AB
:2043E000DA4505D0F8F74CDA05E040F23D204FE00520F7F7A5DD07000AD002A800902346F8
:20440000324629465046FFF790FFE0B31DB10DE04FF416703CE06088534640F08000608056
:2044200002223F493B480097F3F719DB290505EB06090DD0290BB1EB193F05D078193044CC
:204440006FF30B00FFF785FE07EB0508002523E07819F7E708EB050007462168F8F729D822
:2044600047F0807003A9F8F75CD820680399884210D008EB0500CDE90010294903224831AA
:204480002448236800E00EE0F3F7E9DA40F28A20029008E0241D2D1DB542DBD3DA4502D132
:2044A0002049C1F800901E491A4801228431401E029BF3F7D4DA029804B034E70146012045
:2044C000A1F57F42FE3A02D0084633F413B1154A002111607047F8B50446A0F57F404FF40C
:2044E0000015FE3824D0FFF715FE95F89A03800602D50120F5F705DE204633F49AF1064699
:2045000095F89A03800602D50120F5F74EDE0BE0E81F800803311021A87D20001C218008F2
:204520004022800850802000FFF70CFE3046F8BD2046FFF7C3FF0520F7F702DD40F0807442
:2045400095F89A03800602D50120F5F7DADD2046F8F724D9064695F89A03800602D50120CA
:20456000F5F723DE6A4604212046F7F7C6DF00986A4620F40000009004212046F7F785DFB7
:20458000D4E7000038B51346040002D0012C18D103E00A464FF4FA6102E00A4640F698015C
:2045A0001846F7F7B9D960B1FE490978C90706D0009023460222FC49FC48F3F750DA0020C4
:2045C00038BD012038BD38B51346040002D0012C19D103E00A464FF4FA6102E00A4640F664
:2045E00098011846F7F78FD968B1EE490978C90707D0ED490090234602223C31EB48F3F719
:204600002EDA002038BD012038BD002818D0E849D0E900300A7801EBC202C2E901300878AF
:204620000A22401CB0FBF2F302FB13030B704878834205D1401CB0FBF2F302FB13004870C5
:20464000704770B504004FF0000519D001464FF4007037F4F0F498B92078FF280ED160787D
:20466000FF280BD1A078FF2808D1E078FF2805D12079FF2802D16079FF2801D0012506E05A
:20468000C949CA4800227831401CF3F7E8D9284670BD002806D0102904D1C5491022743198
:2046A00045F4FBB370472DE9FF41C14E040006F154068846B0694CD0532121704B2262705B
:2046C0005922A2704FF04D0C84F803C04522227161714821A171E71D002569460A2308E042
:2046E00090FBF3F203FB120290FBF3F030324A556D1C0028F4D105E02A1A0A4412F8012CA5
:204700003A54401CA842F7DB54FA85F080F807C0B078000901F047F854FA85F10872B0782A
:2047200000F00F0001F03FF854FA85F148727078000901F038F854FA85F18872707800F02C
:204740000F0001F030F854FA85F1C8720C3588F80050237804B09449BDE8F0419348012222
:204760009C31401CF3F77B992DE9FC5FDFF840820546A8F1500890F80090D8F820000024A0
:20478000FF2692460F4600286DD0F81E1E286AD2DFF818B284490BF1010B4B460222C031AE
:2047A00058460097F3F75BD9B9F1C60F24D1D8F8201004EB840001EBC00090F82120012A1F
:2047C00014D16A7943799A4210D1AA79807982420CD16979D0B2CDE900017349264623462F
:2047E0000322F4315846F3F73AD903E0641CE4B20A2CDED3FF2E0DD1D8F82000002404EBE6
:20480000840100EBC10191F8211071B3641CE4B20A2CF4D30A2E26D2D8F8202006EB8606B8
:2048200002EBC6004FF0010980F821900021416280F8207004EB840002EBC000202145F4ED
:204840000FF4D8F820003A4600EBC600294645F424F3BAF1000F0BD0D8F82000032100EBE1
:20486000C60080F82210BDE8FC9FFFE72646D1E7D8F8201001EBC60181F82290F3E72DE9B0
:20488000FE4F002500F0A2FF494E8146503E306A00287CD0B089401C80B2B08110287FD399
:2048A000AA46DFF81081A6F80CA0306A05EB850400EBC40090F82110012969D190F82210BD
:2048C00000297DD0406AB8B3494600F083FF0746306A00EBC400406A18B1B8F802008742C8
:2048E0006ED3B8F8020087420FD3F9F76DFF0B21B0FBF1F201FB12006FF0180148434FF4B0
:204900007A6101EB8001A8F80210306A05EB850200EBC202B8F8021092F820200092CDE909
